{
  "contractName": "SmartLease",
  "abi": [
    {
      "constant": true,
      "inputs": [],
      "name": "startDate",
      "outputs": [
        {
          "name": "",
          "type": "uint256"
        }
      ],
      "payable": false,
      "stateMutability": "view",
      "type": "function"
    },
    {
      "constant": true,
      "inputs": [],
      "name": "securityDeposit",
      "outputs": [
        {
          "name": "",
          "type": "uint256"
        }
      ],
      "payable": false,
      "stateMutability": "view",
      "type": "function"
    },
    {
      "constant": true,
      "inputs": [],
      "name": "isActive",
      "outputs": [
        {
          "name": "",
          "type": "bool"
        }
      ],
      "payable": false,
      "stateMutability": "view",
      "type": "function"
    },
    {
      "constant": true,
      "inputs": [],
      "name": "googlePlaceId",
      "outputs": [
        {
          "name": "",
          "type": "string"
        }
      ],
      "payable": false,
      "stateMutability": "view",
      "type": "function"
    },
    {
      "constant": true,
      "inputs": [],
      "name": "numTenants",
      "outputs": [
        {
          "name": "",
          "type": "uint256"
        }
      ],
      "payable": false,
      "stateMutability": "view",
      "type": "function"
    },
    {
      "constant": false,
      "inputs": [],
      "name": "destroy",
      "outputs": [],
      "payable": false,
      "stateMutability": "nonpayable",
      "type": "function"
    },
    {
      "constant": true,
      "inputs": [],
      "name": "owner",
      "outputs": [
        {
          "name": "",
          "type": "address"
        }
      ],
      "payable": false,
      "stateMutability": "view",
      "type": "function"
    },
    {
      "constant": true,
      "inputs": [],
      "name": "factoryAddr",
      "outputs": [
        {
          "name": "",
          "type": "address"
        }
      ],
      "payable": false,
      "stateMutability": "view",
      "type": "function"
    },
    {
      "constant": true,
      "inputs": [
        {
          "name": "",
          "type": "uint256"
        }
      ],
      "name": "tenants",
      "outputs": [
        {
          "name": "firstName",
          "type": "string"
        },
        {
          "name": "lastName",
          "type": "string"
        }
      ],
      "payable": false,
      "stateMutability": "view",
      "type": "function"
    },
    {
      "constant": true,
      "inputs": [],
      "name": "endDate",
      "outputs": [
        {
          "name": "",
          "type": "uint256"
        }
      ],
      "payable": false,
      "stateMutability": "view",
      "type": "function"
    },
    {
      "constant": true,
      "inputs": [],
      "name": "landlord",
      "outputs": [
        {
          "name": "firstName",
          "type": "string"
        },
        {
          "name": "lastName",
          "type": "string"
        }
      ],
      "payable": false,
      "stateMutability": "view",
      "type": "function"
    },
    {
      "constant": true,
      "inputs": [
        {
          "name": "",
          "type": "address"
        }
      ],
      "name": "tenantToSigned",
      "outputs": [
        {
          "name": "",
          "type": "bool"
        }
      ],
      "payable": false,
      "stateMutability": "view",
      "type": "function"
    },
    {
      "constant": true,
      "inputs": [],
      "name": "monthlyRent",
      "outputs": [
        {
          "name": "",
          "type": "uint256"
        }
      ],
      "payable": false,
      "stateMutability": "view",
      "type": "function"
    },
    {
      "constant": true,
      "inputs": [],
      "name": "maxTenants",
      "outputs": [
        {
          "name": "",
          "type": "uint256"
        }
      ],
      "payable": false,
      "stateMutability": "view",
      "type": "function"
    },
    {
      "constant": true,
      "inputs": [
        {
          "name": "",
          "type": "address"
        }
      ],
      "name": "tenantAddressToId",
      "outputs": [
        {
          "name": "",
          "type": "uint256"
        }
      ],
      "payable": false,
      "stateMutability": "view",
      "type": "function"
    },
    {
      "constant": true,
      "inputs": [],
      "name": "isSigned",
      "outputs": [
        {
          "name": "",
          "type": "bool"
        }
      ],
      "payable": false,
      "stateMutability": "view",
      "type": "function"
    },
    {
      "constant": false,
      "inputs": [
        {
          "name": "newOwner",
          "type": "address"
        }
      ],
      "name": "transferOwnership",
      "outputs": [],
      "payable": false,
      "stateMutability": "nonpayable",
      "type": "function"
    },
    {
      "constant": false,
      "inputs": [
        {
          "name": "_recipient",
          "type": "address"
        }
      ],
      "name": "destroyAndSend",
      "outputs": [],
      "payable": false,
      "stateMutability": "nonpayable",
      "type": "function"
    },
    {
      "inputs": [
        {
          "name": "_landlordFirst",
          "type": "string"
        },
        {
          "name": "_landlordLast",
          "type": "string"
        },
        {
          "name": "_googlePlaceId",
          "type": "string"
        },
        {
          "name": "_maxTenants",
          "type": "uint256"
        },
        {
          "name": "_startDate",
          "type": "uint256"
        },
        {
          "name": "_endDate",
          "type": "uint256"
        },
        {
          "name": "_securityDeposit",
          "type": "uint256"
        },
        {
          "name": "_rent",
          "type": "uint256"
        }
      ],
      "payable": false,
      "stateMutability": "nonpayable",
      "type": "constructor"
    },
    {
      "anonymous": false,
      "inputs": [
        {
          "indexed": true,
          "name": "landlord",
          "type": "address"
        }
      ],
      "name": "NewSmartLease",
      "type": "event"
    },
    {
      "anonymous": false,
      "inputs": [
        {
          "indexed": true,
          "name": "tenant",
          "type": "address"
        }
      ],
      "name": "ApproveSmartLease",
      "type": "event"
    },
    {
      "anonymous": false,
      "inputs": [
        {
          "indexed": true,
          "name": "previousOwner",
          "type": "address"
        },
        {
          "indexed": true,
          "name": "newOwner",
          "type": "address"
        }
      ],
      "name": "OwnershipTransferred",
      "type": "event"
    },
    {
      "constant": false,
      "inputs": [
        {
          "name": "_hash",
          "type": "bytes32"
        },
        {
          "name": "_sig",
          "type": "bytes"
        }
      ],
      "name": "signLease",
      "outputs": [],
      "payable": false,
      "stateMutability": "nonpayable",
      "type": "function"
    },
    {
      "constant": false,
      "inputs": [
        {
          "name": "_maxTenants",
          "type": "uint256"
        }
      ],
      "name": "setMaxTenants",
      "outputs": [],
      "payable": false,
      "stateMutability": "nonpayable",
      "type": "function"
    },
    {
      "constant": false,
      "inputs": [
        {
          "name": "_firstName",
          "type": "string"
        },
        {
          "name": "_lastName",
          "type": "string"
        },
        {
          "name": "_tenantAddr",
          "type": "address"
        }
      ],
      "name": "addTenant",
      "outputs": [],
      "payable": false,
      "stateMutability": "nonpayable",
      "type": "function"
    },
    {
      "constant": false,
      "inputs": [
        {
          "name": "_seconds",
          "type": "uint256"
        }
      ],
      "name": "setStartDate",
      "outputs": [],
      "payable": false,
      "stateMutability": "nonpayable",
      "type": "function"
    },
    {
      "constant": false,
      "inputs": [
        {
          "name": "_seconds",
          "type": "uint256"
        }
      ],
      "name": "setEndDate",
      "outputs": [],
      "payable": false,
      "stateMutability": "nonpayable",
      "type": "function"
    },
    {
      "constant": false,
      "inputs": [
        {
          "name": "_securityDepositAmount",
          "type": "uint256"
        }
      ],
      "name": "setSecurityDeposit",
      "outputs": [],
      "payable": false,
      "stateMutability": "nonpayable",
      "type": "function"
    },
    {
      "constant": false,
      "inputs": [
        {
          "name": "_rentAmount",
          "type": "uint256"
        }
      ],
      "name": "setRent",
      "outputs": [],
      "payable": false,
      "stateMutability": "nonpayable",
      "type": "function"
    },
    {
      "constant": false,
      "inputs": [
        {
          "name": "_googlePlaceId",
          "type": "string"
        }
      ],
      "name": "setGooglePlaceId",
      "outputs": [],
      "payable": false,
      "stateMutability": "nonpayable",
      "type": "function"
    }
  ],
  "bytecode": "0x60606040526001600755600060085560006009556000600a556000600b556000600c556020604051908101604052806000815250600d90805190602001906200004a929190620001d9565b5034156200005757600080fd5b60405162001c1838038062001c1883398101604052808051820191906020018051820191906020018051820191906020018051906020019091908051906020019091908051906020019091908051906020019091908051906020019091905050336000806101000a81548173ffffffffffffffffffffffffffffffffffffffff021916908373ffffffffffffffffffffffffffffffffffffffff1602179055506000851115156200010757600080fd5b83831115156200011657600080fd5b876002600001908051906020019062000131929190620001d9565b5086600260010190805190602001906200014d929190620001d9565b5085600d908051906020019062000166929190620001d9565b50846007819055508360098190555082600a8190555081600b8190555080600c8190555033600160006101000a81548173ffffffffffffffffffffffffffffffffffffffff021916908373ffffffffffffffffffffffffffffffffffffffff160217905550505050505050505062000288565b828054600181600116156101000203166002900490600052602060002090601f016020900481019282601f106200021c57805160ff19168380011785556200024d565b828001600101855582156200024d579182015b828111156200024c5782518255916020019190600101906200022f565b5b5090506200025c919062000260565b5090565b6200028591905b808211156200028157600081600090555060010162000267565b5090565b90565b61198080620002986000396000f300606060405260043610610154576000357c0100000000000000000000000000000000000000000000000000000000900463ffffffff1680630b97bc86146101595780630ff9c39114610182578063220e5ab3146101df57806322f3e2d414610208578063295b46311461023557806334c92a2c146102c35780633784f0001461032d57806375136faa1461035057806382d95df51461037957806383197ef01461039c57806386aefcea146103b15780638da5cb5b146103d4578063963671be146104295780639c936c341461047e578063b12a68521461053d578063bd2ba85d14610560578063c24a0f8b14610668578063dc1997ea14610691578063dc328aa81461078b578063e1746af9146107ae578063e4cbecdf146107ff578063e4f0de1e14610828578063e66355a514610851578063e66a6b221461089e578063f2fde38b146108cb578063f5074f4114610904575b600080fd5b341561016457600080fd5b61016c61093d565b6040518082815260200191505060405180910390f35b341561018d57600080fd5b6101dd600480803590602001908201803590602001908080601f01602080910402602001604051908101604052809392919081815260200183838082843782019150505050505091905050610943565b005b34156101ea57600080fd5b6101f26109da565b6040518082815260200191505060405180910390f35b341561021357600080fd5b61021b6109e0565b604051808215151515815260200191505060405180910390f35b341561024057600080fd5b6102486109f3565b6040518080602001828103825283818151815260200191508051906020019080838360005b8381101561028857808201518184015260208101905061026d565b50505050905090810190601f1680156102b55780820380516001836020036101000a031916815260200191505b509250505060405180910390f35b34156102ce57600080fd5b61032b60048080356000191690602001909190803590602001908201803590602001908080601f01602080910402602001604051908101604052809392919081815260200183838082843782019150505050505091905050610a91565b005b341561033857600080fd5b61034e6004808035906020019091905050610bb9565b005b341561035b57600080fd5b610363610c40565b6040518082815260200191505060405180910390f35b341561038457600080fd5b61039a6004808035906020019091905050610c46565b005b34156103a757600080fd5b6103af610ccd565b005b34156103bc57600080fd5b6103d26004808035906020019091905050610d62565b005b34156103df57600080fd5b6103e7610de9565b604051808273ffffffffffffffffffffffffffffffffffffffff1673ffffffffffffffffffffffffffffffffffffffff16815260200191505060405180910390f35b341561043457600080fd5b61043c610e0e565b604051808273ffffffffffffffffffffffffffffffffffffffff1673ffffffffffffffffffffffffffffffffffffffff16815260200191505060405180910390f35b341561048957600080fd5b61053b600480803590602001908201803590602001908080601f0160208091040260200160405190810160405280939291908181526020018383808284378201915050505050509190803590602001908201803590602001908080601f0160208091040260200160405190810160405280939291908181526020018383808284378201915050505050509190803573ffffffffffffffffffffffffffffffffffffffff16906020019091905050610e34565b005b341561054857600080fd5b61055e600480803590602001909190505061109d565b005b341561056b57600080fd5b6105816004808035906020019091905050611124565b604051808060200180602001838103835285818151815260200191508051906020019080838360005b838110156105c55780820151818401526020810190506105aa565b50505050905090810190601f1680156105f25780820380516001836020036101000a031916815260200191505b50838103825284818151815260200191508051906020019080838360005b8381101561062b578082015181840152602081019050610610565b50505050905090810190601f1680156106585780820380516001836020036101000a031916815260200191505b5094505050505060405180910390f35b341561067357600080fd5b61067b611287565b6040518082815260200191505060405180910390f35b341561069c57600080fd5b6106a461128d565b604051808060200180602001838103835285818151815260200191508051906020019080838360005b838110156106e85780820151818401526020810190506106cd565b50505050905090810190601f1680156107155780820380516001836020036101000a031916815260200191505b50838103825284818151815260200191508051906020019080838360005b8381101561074e578082015181840152602081019050610733565b50505050905090810190601f16801561077b5780820380516001836020036101000a031916815260200191505b5094505050505060405180910390f35b341561079657600080fd5b6107ac60048080359060200190919050506113cf565b005b34156107b957600080fd5b6107e5600480803573ffffffffffffffffffffffffffffffffffffffff16906020019091905050611465565b604051808215151515815260200191505060405180910390f35b341561080a57600080fd5b610812611485565b6040518082815260200191505060405180910390f35b341561083357600080fd5b61083b61148b565b6040518082815260200191505060405180910390f35b341561085c57600080fd5b610888600480803573ffffffffffffffffffffffffffffffffffffffff16906020019091905050611491565b6040518082815260200191505060405180910390f35b34156108a957600080fd5b6108b16114a9565b604051808215151515815260200191505060405180910390f35b34156108d657600080fd5b610902600480803573ffffffffffffffffffffffffffffffffffffffff169060200190919050506114bc565b005b341561090f57600080fd5b61093b600480803573ffffffffffffffffffffffffffffffffffffffff16906020019091905050611611565b005b60095481565b6000809054906101000a900473ffffffffffffffffffffffffffffffffffffffff1673ffffffffffffffffffffffffffffffffffffffff163373ffffffffffffffffffffffffffffffffffffffff1614151561099e57600080fd5b60001515600e60019054906101000a900460ff1615151415156109c057600080fd5b80600d90805190602001906109d6929190611776565b5050565b600b5481565b600e60009054906101000a900460ff1681565b600d8054600181600116156101000203166002900480601f016020809104026020016040519081016040528092919081815260200182805460018160011615610100020316600290048015610a895780601f10610a5e57610100808354040283529160200191610a89565b820191906000526020600020905b815481529060010190602001808311610a6c57829003601f168201915b505050505081565b610a9b8282611685565b73ffffffffffffffffffffffffffffffffffffffff163373ffffffffffffffffffffffffffffffffffffffff16148015610b37575060405180807f19457468657265756d205369676e6564204d6573736167653a0a37492041475281526020017f454500000000000000000000000000000000000000000000000000000000000081525060220190506040518091039020600019168260001916145b1515610b4257600080fd5b6001600660003373ffffffffffffffffffffffffffffffffffffffff1673ffffffffffffffffffffffffffffffffffffffff16815260200190815260200160002060006101000a81548160ff0219169083151502179055506001600e60016101000a81548160ff0219169083151502179055505050565b6000809054906101000a900473ffffffffffffffffffffffffffffffffffffffff1673ffffffffffffffffffffffffffffffffffffffff163373ffffffffffffffffffffffffffffffffffffffff16141515610c1457600080fd5b60001515600e60019054906101000a900460ff161515141515610c3657600080fd5b80600a8190555050565b60085481565b6000809054906101000a900473ffffffffffffffffffffffffffffffffffffffff1673ffffffffffffffffffffffffffffffffffffffff163373ffffffffffffffffffffffffffffffffffffffff16141515610ca157600080fd5b60001515600e60019054906101000a900460ff161515141515610cc357600080fd5b8060098190555050565b6000809054906101000a900473ffffffffffffffffffffffffffffffffffffffff1673ffffffffffffffffffffffffffffffffffffffff163373ffffffffffffffffffffffffffffffffffffffff16141515610d2857600080fd5b6000809054906101000a900473ffffffffffffffffffffffffffffffffffffffff1673ffffffffffffffffffffffffffffffffffffffff16ff5b6000809054906101000a900473ffffffffffffffffffffffffffffffffffffffff1673ffffffffffffffffffffffffffffffffffffffff163373ffffffffffffffffffffffffffffffffffffffff16141515610dbd57600080fd5b60001515600e60019054906101000a900460ff161515141515610ddf57600080fd5b80600b8190555050565b6000809054906101000a900473ffffffffffffffffffffffffffffffffffffffff1681565b600160009054906101000a900473ffffffffffffffffffffffffffffffffffffffff1681565b60008060009054906101000a900473ffffffffffffffffffffffffffffffffffffffff1673ffffffffffffffffffffffffffffffffffffffff163373ffffffffffffffffffffffffffffffffffffffff16141515610e9157600080fd5b60001515600e60019054906101000a900460ff161515141515610eb357600080fd5b600754600854101515610ec557600080fd5b60048054806001018281610ed991906117f6565b9160005260206000209060020201600060408051908101604052808881526020018781525090919091506000820151816000019080519060200190610f1f929190611828565b506020820151816001019080519060200190610f3c929190611828565b505050506008600081548092919060010191905055600560008473ffffffffffffffffffffffffffffffffffffffff1673ffffffffffffffffffffffffffffffffffffffff16815260200190815260200160002081905550600160009054906101000a900473ffffffffffffffffffffffffffffffffffffffff1690508073ffffffffffffffffffffffffffffffffffffffff1663f7faf1a730846040518363ffffffff167c0100000000000000000000000000000000000000000000000000000000028152600401808373ffffffffffffffffffffffffffffffffffffffff1673ffffffffffffffffffffffffffffffffffffffff1681526020018273ffffffffffffffffffffffffffffffffffffffff1673ffffffffffffffffffffffffffffffffffffffff16815260200192505050600060405180830381600087803b151561108757600080fd5b5af1151561109457600080fd5b50505050505050565b6000809054906101000a900473ffffffffffffffffffffffffffffffffffffffff1673ffffffffffffffffffffffffffffffffffffffff163373ffffffffffffffffffffffffffffffffffffffff161415156110f857600080fd5b60001515600e60019054906101000a900460ff16151514151561111a57600080fd5b80600c8190555050565b60048181548110151561113357fe5b9060005260206000209060020201600091509050806000018054600181600116156101000203166002900480601f0160208091040260200160405190810160405280929190818152602001828054600181600116156101000203166002900480156111df5780601f106111b4576101008083540402835291602001916111df565b820191906000526020600020905b8154815290600101906020018083116111c257829003601f168201915b505050505090806001018054600181600116156101000203166002900480601f01602080910402602001604051908101604052809291908181526020018280546001816001161561010002031660029004801561127d5780601f106112525761010080835404028352916020019161127d565b820191906000526020600020905b81548152906001019060200180831161126057829003601f168201915b5050505050905082565b600a5481565b6002806000018054600181600116156101000203166002900480601f0160208091040260200160405190810160405280929190818152602001828054600181600116156101000203166002900480156113275780601f106112fc57610100808354040283529160200191611327565b820191906000526020600020905b81548152906001019060200180831161130a57829003601f168201915b505050505090806001018054600181600116156101000203166002900480601f0160208091040260200160405190810160405280929190818152602001828054600181600116156101000203166002900480156113c55780601f1061139a576101008083540402835291602001916113c5565b820191906000526020600020905b8154815290600101906020018083116113a857829003601f168201915b5050505050905082565b6000809054906101000a900473ffffffffffffffffffffffffffffffffffffffff1673ffffffffffffffffffffffffffffffffffffffff163373ffffffffffffffffffffffffffffffffffffffff1614151561142a57600080fd5b60001515600e60019054906101000a900460ff16151514151561144c57600080fd5b60008111151561145b57600080fd5b8060078190555050565b60066020528060005260406000206000915054906101000a900460ff1681565b600c5481565b60075481565b60056020528060005260406000206000915090505481565b600e60019054906101000a900460ff1681565b6000809054906101000a900473ffffffffffffffffffffffffffffffffffffffff1673ffffffffffffffffffffffffffffffffffffffff163373ffffffffffffffffffffffffffffffffffffffff1614151561151757600080fd5b600073ffffffffffffffffffffffffffffffffffffffff168173ffffffffffffffffffffffffffffffffffffffff161415151561155357600080fd5b8073ffffffffffffffffffffffffffffffffffffffff166000809054906101000a900473ffffffffffffffffffffffffffffffffffffffff1673ffffffffffffffffffffffffffffffffffffffff167f8be0079c531659141344cd1fd0a4f28419497f9722a3daafe3b4186f6b6457e060405160405180910390a3806000806101000a81548173ffffffffffffffffffffffffffffffffffffffff021916908373ffffffffffffffffffffffffffffffffffffffff16021790555050565b6000809054906101000a900473ffffffffffffffffffffffffffffffffffffffff1673ffffffffffffffffffffffffffffffffffffffff163373ffffffffffffffffffffffffffffffffffffffff1614151561166c57600080fd5b8073ffffffffffffffffffffffffffffffffffffffff16ff5b6000806000806041855114151561169f576000935061176d565b6020850151925060408501519150606085015160001a9050601b8160ff1610156116ca57601b810190505b601b8160ff16141580156116e25750601c8160ff1614155b156116f0576000935061176d565b600186828585604051600081526020016040526040518085600019166000191681526020018460ff1660ff1681526020018360001916600019168152602001826000191660001916815260200194505050505060206040516020810390808403906000865af1151561176157600080fd5b50506020604051035193505b50505092915050565b828054600181600116156101000203166002900490600052602060002090601f016020900481019282601f106117b757805160ff19168380011785556117e5565b828001600101855582156117e5579182015b828111156117e45782518255916020019190600101906117c9565b5b5090506117f291906118a8565b5090565b8154818355818115116118235760020281600202836000526020600020918201910161182291906118cd565b5b505050565b828054600181600116156101000203166002900490600052602060002090601f016020900481019282601f1061186957805160ff1916838001178555611897565b82800160010185558215611897579182015b8281111561189657825182559160200191906001019061187b565b5b5090506118a491906118a8565b5090565b6118ca91905b808211156118c65760008160009055506001016118ae565b5090565b90565b61190991905b8082111561190557600080820160006118ec919061190c565b6001820160006118fc919061190c565b506002016118d3565b5090565b90565b50805460018160011615610100020316600290046000825580601f106119325750611951565b601f01602090049060005260206000209081019061195091906118a8565b5b505600a165627a7a723058202b1e8fda7bb38465bc52cb76619471b49837afd8fb8d0d607492dc36f98a29dc0029",
  "source": "pragma solidity ^0.4.21;\n\nimport \"zeppelin-solidity/contracts/lifecycle/Destructible.sol\";\nimport \"zeppelin-solidity/contracts/ECRecovery.sol\";\n\n\ncontract FactoryAPI {\n    /*\n     *   Abstract contract to allow SmartLease to emit a NewTenant event in the factory.\n     */\n    function emitNewTenant(address _contract_address, address _tenant) public;\n}\n\ncontract SmartLease is Destructible {\n\n    event NewSmartLease(address indexed landlord);\n    event ApproveSmartLease(address indexed tenant);\n\n    struct Person {\n        string firstName;\n        string lastName;\n    }\n\n    address public factoryAddr;\n\n    Person public landlord;\n    Person[] public tenants;\n    mapping (address => uint) public tenantAddressToId;\n    mapping (address => bool) public tenantToSigned;\n    uint public maxTenants = 1;\n    uint public numTenants = 0;\n    uint public startDate = 0;\n    uint public endDate = 0;\n    uint public securityDeposit = 0;\n    uint public monthlyRent = 0;\n    string public googlePlaceId = \"\";\n    bool public isActive;\n    bool public isSigned;\n\n    modifier beforeSigning() {\n        require(isSigned == false);\n        _;\n    }\n\n    modifier dateTimeAddressValid(address _dtAddress) {\n        require(_dtAddress != 0);\n        _;\n    }\n\n    function signLease(bytes32 _hash, bytes _sig) public {\n        require(msg.sender == ECRecovery.recover(_hash, _sig) && _hash == keccak256(\"\\x19Ethereum Signed Message:\\n7I AGREE\"));\n        tenantToSigned[msg.sender] = true;\n        isSigned = true;\n    }\n\n    // function SmartLease(string _firstName, string _lastName) public {\n    //     landlord.firstName = _firstName;\n    //     landlord.lastName = _lastName;\n    //     factoryAddr = msg.sender;\n    // }\n\n    function SmartLease(\n        string _landlordFirst,\n        string _landlordLast,\n        string _googlePlaceId,\n        uint _maxTenants,\n        uint _startDate,\n        uint _endDate,\n        uint _securityDeposit,\n        uint _rent\n        ) public\n    {\n        require(_maxTenants > 0);\n        require(_endDate > _startDate);\n\n        landlord.firstName = _landlordFirst;\n        landlord.lastName = _landlordLast;\n        googlePlaceId = _googlePlaceId;\n        maxTenants = _maxTenants;\n        startDate = _startDate;\n        endDate = _endDate;\n        securityDeposit = _securityDeposit;\n        monthlyRent = _rent;\n\n        factoryAddr = msg.sender;\n    }\n\n    function setMaxTenants(uint _maxTenants) public onlyOwner beforeSigning {\n        require(_maxTenants > 0);\n        maxTenants = _maxTenants;\n    }\n\n    function addTenant(string _firstName, string _lastName, address _tenantAddr) public onlyOwner beforeSigning {\n        require(numTenants < maxTenants);\n        tenants.push(Person(_firstName, _lastName));\n        tenantAddressToId[_tenantAddr] = numTenants++;\n        FactoryAPI factory = FactoryAPI(factoryAddr);\n        factory.emitNewTenant(this, _tenantAddr);\n    }\n\n    function setStartDate(uint _seconds) public onlyOwner beforeSigning {\n        startDate = _seconds;\n    }\n\n    function setEndDate(uint _seconds) public onlyOwner beforeSigning {\n        endDate = _seconds;\n    }\n\n    function setSecurityDeposit(uint _securityDepositAmount) public onlyOwner beforeSigning {\n        securityDeposit = _securityDepositAmount;\n    }\n    \n    function setRent(uint _rentAmount) public onlyOwner beforeSigning {\n        monthlyRent = _rentAmount;\n    }\n\n    function setGooglePlaceId(string _googlePlaceId) public onlyOwner beforeSigning {\n        googlePlaceId = _googlePlaceId;\n    }\n}",
  "sourcePath": "/Users/ABMBP/Holberton/Blockchain/SmartLeaseMain/contracts/smartlease.sol",
  "compiler": {
    "name": "solc",
    "version": "0.4.21+commit.dfe3193c.Emscripten.clang"
  },
  "schemaVersion": "2.0.0",
  "updatedAt": "2018-04-19T22:01:19.307Z"
}