{
  "contractName": "SmartLeaseFactory",
  "abi": [
    {
      "constant": true,
      "inputs": [],
      "name": "owner",
      "outputs": [
        {
          "name": "",
          "type": "address"
        }
      ],
      "payable": false,
      "stateMutability": "view",
      "type": "function"
    },
    {
      "constant": false,
      "inputs": [
        {
          "name": "newOwner",
          "type": "address"
        }
      ],
      "name": "transferOwnership",
      "outputs": [],
      "payable": false,
      "stateMutability": "nonpayable",
      "type": "function"
    },
    {
      "constant": true,
      "inputs": [],
      "name": "test",
      "outputs": [
        {
          "name": "",
          "type": "string"
        }
      ],
      "payable": false,
      "stateMutability": "view",
      "type": "function"
    },
    {
      "anonymous": false,
      "inputs": [
        {
          "indexed": false,
          "name": "contract_address",
          "type": "address"
        },
        {
          "indexed": true,
          "name": "landlord",
          "type": "address"
        }
      ],
      "name": "NewLease",
      "type": "event"
    },
    {
      "anonymous": false,
      "inputs": [
        {
          "indexed": true,
          "name": "previousOwner",
          "type": "address"
        },
        {
          "indexed": true,
          "name": "newOwner",
          "type": "address"
        }
      ],
      "name": "OwnershipTransferred",
      "type": "event"
    },
    {
      "constant": false,
      "inputs": [
        {
          "name": "_first",
          "type": "string"
        },
        {
          "name": "_last",
          "type": "string"
        }
      ],
      "name": "createContract",
      "outputs": [],
      "payable": false,
      "stateMutability": "nonpayable",
      "type": "function"
    }
  ],
  "bytecode": "0x60606040526040805190810160405280600581526020017f57656972640000000000000000000000000000000000000000000000000000008152506001908051906020019061004f929190610095565b50336000806101000a81548173ffffffffffffffffffffffffffffffffffffffff021916908373ffffffffffffffffffffffffffffffffffffffff16021790555061013a565b828054600181600116156101000203166002900490600052602060002090601f016020900481019282601f106100d657805160ff1916838001178555610104565b82800160010185558215610104579182015b828111156101035782518255916020019190600101906100e8565b5b5090506101119190610115565b5090565b61013791905b8082111561013357600081600090555060010161011b565b5090565b90565b611ea6806101496000396000f300606060405260043610610062576000357c0100000000000000000000000000000000000000000000000000000000900463ffffffff168063631a4231146100675780638da5cb5b146100a9578063f2fde38b146100fe578063f8a8fd6d14610137575b600080fd5b341561007257600080fd5b6100a76004808035906020019082018035906020019190919290803590602001908201803590602001919091929050506101c5565b005b34156100b457600080fd5b6100bc610359565b604051808273ffffffffffffffffffffffffffffffffffffffff1673ffffffffffffffffffffffffffffffffffffffff16815260200191505060405180910390f35b341561010957600080fd5b610135600480803573ffffffffffffffffffffffffffffffffffffffff1690602001909190505061037e565b005b341561014257600080fd5b61014a6104d3565b6040518080602001828103825283818151815260200191508051906020019080838360005b8381101561018a57808201518184015260208101905061016f565b50505050905090810190601f1680156101b75780820380516001836020036101000a031916815260200191505b509250505060405180910390f35b6000848484846101d3610571565b80806020018060200183810383528787828181526020019250808284378201915050838103825285858281815260200192508082843782019150509650505050505050604051809103906000f080151561022c57600080fd5b90508073ffffffffffffffffffffffffffffffffffffffff1663f2fde38b326040518263ffffffff167c0100000000000000000000000000000000000000000000000000000000028152600401808273ffffffffffffffffffffffffffffffffffffffff1673ffffffffffffffffffffffffffffffffffffffff168152602001915050600060405180830381600087803b15156102c857600080fd5b5af115156102d557600080fd5b5050503273ffffffffffffffffffffffffffffffffffffffff167f53f2902f2b607b4aac0469383128845ef3d34d7adf4bcc5efa53176d4f5bde1f82604051808273ffffffffffffffffffffffffffffffffffffffff1673ffffffffffffffffffffffffffffffffffffffff16815260200191505060405180910390a25050505050565b6000809054906101000a900473ffffffffffffffffffffffffffffffffffffffff1681565b6000809054906101000a900473ffffffffffffffffffffffffffffffffffffffff1673ffffffffffffffffffffffffffffffffffffffff163373ffffffffffffffffffffffffffffffffffffffff161415156103d957600080fd5b600073ffffffffffffffffffffffffffffffffffffffff168173ffffffffffffffffffffffffffffffffffffffff161415151561041557600080fd5b8073ffffffffffffffffffffffffffffffffffffffff166000809054906101000a900473ffffffffffffffffffffffffffffffffffffffff1673ffffffffffffffffffffffffffffffffffffffff167f8be0079c531659141344cd1fd0a4f28419497f9722a3daafe3b4186f6b6457e060405160405180910390a3806000806101000a81548173ffffffffffffffffffffffffffffffffffffffff021916908373ffffffffffffffffffffffffffffffffffffffff16021790555050565b60018054600181600116156101000203166002900480601f0160208091040260200160405190810160405280929190818152602001828054600181600116156101000203166002900480156105695780601f1061053e57610100808354040283529160200191610569565b820191906000526020600020905b81548152906001019060200180831161054c57829003601f168201915b505050505081565b6040516118f98061058283390190560060606040526000600160006101000a81548173ffffffffffffffffffffffffffffffffffffffff021916908373ffffffffffffffffffffffffffffffffffffffff160217905550600160009054906101000a900473ffffffffffffffffffffffffffffffffffffffff16600260006101000a81548173ffffffffffffffffffffffffffffffffffffffff021916908373ffffffffffffffffffffffffffffffffffffffff160217905550600160085560006009556000600a556000600b556000600c556000600d906000191690553415620000d957600080fd5b604051620018f9380380620018f983398101604052808051820191906020018051820191905050336000806101000a81548173ffffffffffffffffffffffffffffffffffffffff021916908373ffffffffffffffffffffffffffffffffffffffff16021790555081600360000190805190602001906200015b929190620001e4565b50806003600101908051906020019062000177929190620001e4565b506000809054906101000a900473ffffffffffffffffffffffffffffffffffffffff1673ffffffffffffffffffffffffffffffffffffffff167f7bb2a51e5a3ae16ccc7157f3270fe170cee4fb5e7ebc9090e82ad0a0432f6e1860405160405180910390a2505062000293565b828054600181600116156101000203166002900490600052602060002090601f016020900481019282601f106200022757805160ff191683800117855562000258565b8280016001018555821562000258579182015b82811115620002575782518255916020019190600101906200023a565b5b5090506200026791906200026b565b5090565b6200029091905b808211156200028c57600081600090555060010162000272565b5090565b90565b61165680620002a36000396000f300606060405260043610610107576000357c0100000000000000000000000000000000000000000000000000000000900463ffffffff1680630b97bc861461010c578063220e5ab31461013557806334c92a2c1461015e5780634cf3d6d4146101c857806375136faa146102685780637ec37f2c1461029157806386aefcea146102d05780638da5cb5b146102f35780639f66272314610348578063bd2ba85d1461036f578063c24a0f8b14610477578063c36ff3dd146104a0578063c601e54a146104df578063dc1997ea14610510578063dc328aa81461060a578063e1746af91461062d578063e4f0de1e1461067e578063e66355a5146106a7578063f2fde38b146106f4575b600080fd5b341561011757600080fd5b61011f61072d565b6040518082815260200191505060405180910390f35b341561014057600080fd5b610148610733565b6040518082815260200191505060405180910390f35b341561016957600080fd5b6101c660048080356000191690602001909190803590602001908201803590602001908080601f01602080910402602001604051908101604052809392919081815260200183838082843782019150505050505091905050610739565b005b34156101d357600080fd5b610266600480803590602001908201803590602001908080601f0160208091040260200160405190810160405280939291908181526020018383808284378201915050505050509190803590602001908201803590602001908080601f01602080910402602001604051908101604052809392919081815260200183838082843782019150505050505091905050610861565b005b341561027357600080fd5b61027b610a8a565b6040518082815260200191505060405180910390f35b341561029c57600080fd5b6102ce600480803561ffff1690602001909190803560ff1690602001909190803560ff16906020019091905050610a90565b005b34156102db57600080fd5b6102f16004808035906020019091905050610c2d565b005b34156102fe57600080fd5b610306610cb4565b604051808273ffffffffffffffffffffffffffffffffffffffff1673ffffffffffffffffffffffffffffffffffffffff16815260200191505060405180910390f35b341561035357600080fd5b61036d600480803560001916906020019091905050610cd9565b005b341561037a57600080fd5b6103906004808035906020019091905050610d64565b604051808060200180602001838103835285818151815260200191508051906020019080838360005b838110156103d45780820151818401526020810190506103b9565b50505050905090810190601f1680156104015780820380516001836020036101000a031916815260200191505b50838103825284818151815260200191508051906020019080838360005b8381101561043a57808201518184015260208101905061041f565b50505050905090810190601f1680156104675780820380516001836020036101000a031916815260200191505b5094505050505060405180910390f35b341561048257600080fd5b61048a610ec7565b6040518082815260200191505060405180910390f35b34156104ab57600080fd5b6104dd600480803561ffff1690602001909190803560ff1690602001909190803560ff16906020019091905050610ecd565b005b34156104ea57600080fd5b6104f261106a565b60405180826000191660001916815260200191505060405180910390f35b341561051b57600080fd5b610523611070565b604051808060200180602001838103835285818151815260200191508051906020019080838360005b8381101561056757808201518184015260208101905061054c565b50505050905090810190601f1680156105945780820380516001836020036101000a031916815260200191505b50838103825284818151815260200191508051906020019080838360005b838110156105cd5780820151818401526020810190506105b2565b50505050905090810190601f1680156105fa5780820380516001836020036101000a031916815260200191505b5094505050505060405180910390f35b341561061557600080fd5b61062b60048080359060200190919050506111b2565b005b341561063857600080fd5b610664600480803573ffffffffffffffffffffffffffffffffffffffff16906020019091905050611248565b604051808215151515815260200191505060405180910390f35b341561068957600080fd5b610691611268565b6040518082815260200191505060405180910390f35b34156106b257600080fd5b6106de600480803573ffffffffffffffffffffffffffffffffffffffff1690602001909190505061126e565b6040518082815260200191505060405180910390f35b34156106ff57600080fd5b61072b600480803573ffffffffffffffffffffffffffffffffffffffff16906020019091905050611286565b005b600a5481565b600c5481565b61074382826113db565b73ffffffffffffffffffffffffffffffffffffffff163373ffffffffffffffffffffffffffffffffffffffff161480156107df575060405180807f19457468657265756d205369676e6564204d6573736167653a0a37492041475281526020017f454500000000000000000000000000000000000000000000000000000000000081525060220190506040518091039020600019168260001916145b15156107ea57600080fd5b6001600760003373ffffffffffffffffffffffffffffffffffffffff1673ffffffffffffffffffffffffffffffffffffffff16815260200190815260200160002060006101000a81548160ff0219169083151502179055506001600e60016101000a81548160ff0219169083151502179055505050565b6000809054906101000a900473ffffffffffffffffffffffffffffffffffffffff1673ffffffffffffffffffffffffffffffffffffffff163373ffffffffffffffffffffffffffffffffffffffff161415156108bc57600080fd5b60001515600e60019054906101000a900460ff1615151415156108de57600080fd5b6008546009541015156108f057600080fd5b6005805480600101828161090491906114cc565b916000526020600020906002020160006040805190810160405280868152602001858152509091909150600082015181600001908051906020019061094a9291906114fe565b5060208201518160010190805190602001906109679291906114fe565b505050506009600081548092919060010191905055507f73516a27186c46c5e90e786032cb9658f8d9bedddae33b6b66b710b4a74f8b2d8282604051808060200180602001838103835285818151815260200191508051906020019080838360005b838110156109e45780820151818401526020810190506109c9565b50505050905090810190601f168015610a115780820380516001836020036101000a031916815260200191505b50838103825284818151815260200191508051906020019080838360005b83811015610a4a578082015181840152602081019050610a2f565b50505050905090810190601f168015610a775780820380516001836020036101000a031916815260200191505b5094505050505060405180910390a15050565b60095481565b6000809054906101000a900473ffffffffffffffffffffffffffffffffffffffff1673ffffffffffffffffffffffffffffffffffffffff163373ffffffffffffffffffffffffffffffffffffffff16141515610aeb57600080fd5b60001515600e60019054906101000a900460ff161515141515610b0d57600080fd5b600160009054906101000a900473ffffffffffffffffffffffffffffffffffffffff1660008173ffffffffffffffffffffffffffffffffffffffff1614151515610b5657600080fd5b600260009054906101000a900473ffffffffffffffffffffffffffffffffffffffff1673ffffffffffffffffffffffffffffffffffffffff16638c8d98a08585856040518463ffffffff167c0100000000000000000000000000000000000000000000000000000000028152600401808461ffff1661ffff1681526020018360ff1660ff1681526020018260ff1660ff1681526020019350505050602060405180830381600087803b1515610c0a57600080fd5b5af11515610c1757600080fd5b50505060405180519050600b8190555050505050565b6000809054906101000a900473ffffffffffffffffffffffffffffffffffffffff1673ffffffffffffffffffffffffffffffffffffffff163373ffffffffffffffffffffffffffffffffffffffff16141515610c8857600080fd5b60001515600e60019054906101000a900460ff161515141515610caa57600080fd5b80600c8190555050565b6000809054906101000a900473ffffffffffffffffffffffffffffffffffffffff1681565b6000809054906101000a900473ffffffffffffffffffffffffffffffffffffffff1673ffffffffffffffffffffffffffffffffffffffff163373ffffffffffffffffffffffffffffffffffffffff16141515610d3457600080fd5b60001515600e60019054906101000a900460ff161515141515610d5657600080fd5b80600d816000191690555050565b600581815481101515610d7357fe5b9060005260206000209060020201600091509050806000018054600181600116156101000203166002900480601f016020809104026020016040519081016040528092919081815260200182805460018160011615610100020316600290048015610e1f5780601f10610df457610100808354040283529160200191610e1f565b820191906000526020600020905b815481529060010190602001808311610e0257829003601f168201915b505050505090806001018054600181600116156101000203166002900480601f016020809104026020016040519081016040528092919081815260200182805460018160011615610100020316600290048015610ebd5780601f10610e9257610100808354040283529160200191610ebd565b820191906000526020600020905b815481529060010190602001808311610ea057829003601f168201915b5050505050905082565b600b5481565b6000809054906101000a900473ffffffffffffffffffffffffffffffffffffffff1673ffffffffffffffffffffffffffffffffffffffff163373ffffffffffffffffffffffffffffffffffffffff16141515610f2857600080fd5b60001515600e60019054906101000a900460ff161515141515610f4a57600080fd5b600160009054906101000a900473ffffffffffffffffffffffffffffffffffffffff1660008173ffffffffffffffffffffffffffffffffffffffff1614151515610f9357600080fd5b600260009054906101000a900473ffffffffffffffffffffffffffffffffffffffff1673ffffffffffffffffffffffffffffffffffffffff16638c8d98a08585856040518463ffffffff167c0100000000000000000000000000000000000000000000000000000000028152600401808461ffff1661ffff1681526020018360ff1660ff1681526020018260ff1660ff1681526020019350505050602060405180830381600087803b151561104757600080fd5b5af1151561105457600080fd5b50505060405180519050600a8190555050505050565b600d5481565b6003806000018054600181600116156101000203166002900480601f01602080910402602001604051908101604052809291908181526020018280546001816001161561010002031660029004801561110a5780601f106110df5761010080835404028352916020019161110a565b820191906000526020600020905b8154815290600101906020018083116110ed57829003601f168201915b505050505090806001018054600181600116156101000203166002900480601f0160208091040260200160405190810160405280929190818152602001828054600181600116156101000203166002900480156111a85780601f1061117d576101008083540402835291602001916111a8565b820191906000526020600020905b81548152906001019060200180831161118b57829003601f168201915b5050505050905082565b6000809054906101000a900473ffffffffffffffffffffffffffffffffffffffff1673ffffffffffffffffffffffffffffffffffffffff163373ffffffffffffffffffffffffffffffffffffffff1614151561120d57600080fd5b60001515600e60019054906101000a900460ff16151514151561122f57600080fd5b60008111151561123e57600080fd5b8060088190555050565b60076020528060005260406000206000915054906101000a900460ff1681565b60085481565b60066020528060005260406000206000915090505481565b6000809054906101000a900473ffffffffffffffffffffffffffffffffffffffff1673ffffffffffffffffffffffffffffffffffffffff163373ffffffffffffffffffffffffffffffffffffffff161415156112e157600080fd5b600073ffffffffffffffffffffffffffffffffffffffff168173ffffffffffffffffffffffffffffffffffffffff161415151561131d57600080fd5b8073ffffffffffffffffffffffffffffffffffffffff166000809054906101000a900473ffffffffffffffffffffffffffffffffffffffff1673ffffffffffffffffffffffffffffffffffffffff167f8be0079c531659141344cd1fd0a4f28419497f9722a3daafe3b4186f6b6457e060405160405180910390a3806000806101000a81548173ffffffffffffffffffffffffffffffffffffffff021916908373ffffffffffffffffffffffffffffffffffffffff16021790555050565b600080600080604185511415156113f557600093506114c3565b6020850151925060408501519150606085015160001a9050601b8160ff16101561142057601b810190505b601b8160ff16141580156114385750601c8160ff1614155b1561144657600093506114c3565b600186828585604051600081526020016040526040518085600019166000191681526020018460ff1660ff1681526020018360001916600019168152602001826000191660001916815260200194505050505060206040516020810390808403906000865af115156114b757600080fd5b50506020604051035193505b50505092915050565b8154818355818115116114f9576002028160020283600052602060002091820191016114f8919061157e565b5b505050565b828054600181600116156101000203166002900490600052602060002090601f016020900481019282601f1061153f57805160ff191683800117855561156d565b8280016001018555821561156d579182015b8281111561156c578251825591602001919060010190611551565b5b50905061157a91906115bd565b5090565b6115ba91905b808211156115b6576000808201600061159d91906115e2565b6001820160006115ad91906115e2565b50600201611584565b5090565b90565b6115df91905b808211156115db5760008160009055506001016115c3565b5090565b90565b50805460018160011615610100020316600290046000825580601f106116085750611627565b601f01602090049060005260206000209081019061162691906115bd565b5b505600a165627a7a723058209017fe02ac85884e19b1c7f888f636495e339f6e18564844c3aadc2608d8bbac0029a165627a7a72305820d014c72727f967119a22bfb320ec955ba58c00092975890de6343a49676fc7cc0029",
  "source": "pragma solidity ^0.4.21;\n\nimport \"zeppelin-solidity/contracts/ownership/Ownable.sol\";\nimport \"./smartlease.sol\";\n\ncontract SmartLeaseFactory is Ownable {\n\n\tevent NewLease(address contract_address, address indexed landlord);\n\n\tstring public test = \"Weird\";\n\n\tfunction createContract(string _first, string _last) external {\n\t\tSmartLease newContract = new SmartLease(_first, _last);\n\t\tnewContract.transferOwnership(tx.origin);\n\t\temit NewLease(newContract, tx.origin);\n\t}\n}",
  "sourcePath": "/Users/ABMBP/Holberton/Blockchain/SmartLeaseMain/contracts/smartleasefactory.sol",
  "compiler": {
    "name": "solc",
    "version": "0.4.21+commit.dfe3193c.Emscripten.clang"
  },
  "schemaVersion": "2.0.0",
  "updatedAt": "2018-04-17T00:23:23.529Z"
}