{
  "contractName": "SmartLeaseFactory",
  "abi": [
    {
      "constant": true,
      "inputs": [],
      "name": "owner",
      "outputs": [
        {
          "name": "",
          "type": "address"
        }
      ],
      "payable": false,
      "stateMutability": "view",
      "type": "function"
    },
    {
      "constant": false,
      "inputs": [
        {
          "name": "newOwner",
          "type": "address"
        }
      ],
      "name": "transferOwnership",
      "outputs": [],
      "payable": false,
      "stateMutability": "nonpayable",
      "type": "function"
    },
    {
      "constant": true,
      "inputs": [],
      "name": "test",
      "outputs": [
        {
          "name": "",
          "type": "string"
        }
      ],
      "payable": false,
      "stateMutability": "view",
      "type": "function"
    },
    {
      "anonymous": false,
      "inputs": [
        {
          "indexed": false,
          "name": "contract_address",
          "type": "address"
        },
        {
          "indexed": true,
          "name": "landlord",
          "type": "address"
        }
      ],
      "name": "NewLease",
      "type": "event"
    },
    {
      "anonymous": false,
      "inputs": [
        {
          "indexed": false,
          "name": "contract_address",
          "type": "address"
        },
        {
          "indexed": true,
          "name": "tenant",
          "type": "address"
        }
      ],
      "name": "NewTenant",
      "type": "event"
    },
    {
      "anonymous": false,
      "inputs": [
        {
          "indexed": true,
          "name": "contract_address",
          "type": "address"
        }
      ],
      "name": "DestroyLease",
      "type": "event"
    },
    {
      "anonymous": false,
      "inputs": [
        {
          "indexed": true,
          "name": "previousOwner",
          "type": "address"
        },
        {
          "indexed": true,
          "name": "newOwner",
          "type": "address"
        }
      ],
      "name": "OwnershipTransferred",
      "type": "event"
    },
    {
      "constant": false,
      "inputs": [
        {
          "name": "_landlordFirst",
          "type": "string"
        },
        {
          "name": "_landlordLast",
          "type": "string"
        },
        {
          "name": "_googlePlaceId",
          "type": "string"
        },
        {
          "name": "_maxTenants",
          "type": "uint256"
        },
        {
          "name": "_startDate",
          "type": "uint256"
        },
        {
          "name": "_endDate",
          "type": "uint256"
        },
        {
          "name": "_securityDeposit",
          "type": "uint256"
        },
        {
          "name": "_rent",
          "type": "uint256"
        }
      ],
      "name": "createContract",
      "outputs": [
        {
          "name": "leaseAddress",
          "type": "address"
        }
      ],
      "payable": false,
      "stateMutability": "nonpayable",
      "type": "function"
    },
    {
      "constant": false,
      "inputs": [
        {
          "name": "_lease_address",
          "type": "address"
        },
        {
          "name": "_tenant_address",
          "type": "address"
        }
      ],
      "name": "emitNewTenant",
      "outputs": [],
      "payable": false,
      "stateMutability": "nonpayable",
      "type": "function"
    },
    {
      "constant": false,
      "inputs": [
        {
          "name": "_lease_address",
          "type": "address"
        }
      ],
      "name": "emitDestroyLease",
      "outputs": [],
      "payable": false,
      "stateMutability": "nonpayable",
      "type": "function"
    }
  ],
  "bytecode": "0x60606040526040805190810160405280600981526020017f436f6e6e656374656400000000000000000000000000000000000000000000008152506001908051906020019061004f929190610095565b50336000806101000a81548173ffffffffffffffffffffffffffffffffffffffff021916908373ffffffffffffffffffffffffffffffffffffffff16021790555061013a565b828054600181600116156101000203166002900490600052602060002090601f016020900481019282601f106100d657805160ff1916838001178555610104565b82800160010185558215610104579182015b828111156101035782518255916020019190600101906100e8565b5b5090506101119190610115565b5090565b61013791905b8082111561013357600081600090555060010161011b565b5090565b90565b612777806101496000396000f300606060405260043610610078576000357c0100000000000000000000000000000000000000000000000000000000900463ffffffff168063397de60c1461007d5780638332da9a146100b65780638da5cb5b14610179578063f2fde38b146101ce578063f7faf1a714610207578063f8a8fd6d1461025f575b600080fd5b341561008857600080fd5b6100b4600480803573ffffffffffffffffffffffffffffffffffffffff169060200190919050506102ed565b005b34156100c157600080fd5b6101376004808035906020019082018035906020019190919290803590602001908201803590602001919091929080359060200190820180359060200191909192908035906020019091908035906020019091908035906020019091908035906020019091908035906020019091905050610428565b604051808273ffffffffffffffffffffffffffffffffffffffff1673ffffffffffffffffffffffffffffffffffffffff16815260200191505060405180910390f35b341561018457600080fd5b61018c610613565b604051808273ffffffffffffffffffffffffffffffffffffffff1673ffffffffffffffffffffffffffffffffffffffff16815260200191505060405180910390f35b34156101d957600080fd5b610205600480803573ffffffffffffffffffffffffffffffffffffffff16906020019091905050610638565b005b341561021257600080fd5b61025d600480803573ffffffffffffffffffffffffffffffffffffffff1690602001909190803573ffffffffffffffffffffffffffffffffffffffff1690602001909190505061078d565b005b341561026a57600080fd5b610272610900565b6040518080602001828103825283818151815260200191508051906020019080838360005b838110156102b2578082015181840152602081019050610297565b50505050905090810190601f1680156102df5780820380516001836020036101000a031916815260200191505b509250505060405180910390f35b808073ffffffffffffffffffffffffffffffffffffffff163373ffffffffffffffffffffffffffffffffffffffff1614151561032857600080fd5b60003390508073ffffffffffffffffffffffffffffffffffffffff16638da5cb5b6040518163ffffffff167c0100000000000000000000000000000000000000000000000000000000028152600401602060405180830381600087803b151561039057600080fd5b5af1151561039d57600080fd5b5050506040518051905073ffffffffffffffffffffffffffffffffffffffff163273ffffffffffffffffffffffffffffffffffffffff161415156103e057600080fd5b8273ffffffffffffffffffffffffffffffffffffffff167fb0bf188cfc1d70965a34dabe5e1ca0237f4fd508ec271d9192d44351d14c1dd260405160405180910390a2505050565b6000808c8c8c8c8c8c8c8c8c8c8c61043e61099e565b8080602001806020018060200189815260200188815260200187815260200186815260200185815260200184810384528f8f82818152602001925080828437820191505084810383528d8d82818152602001925080828437820191505084810382528b8b8281815260200192508082843782019150509e505050505050505050505050505050604051809103906000f08015156104da57600080fd5b90508073ffffffffffffffffffffffffffffffffffffffff1663f2fde38b326040518263ffffffff167c0100000000000000000000000000000000000000000000000000000000028152600401808273ffffffffffffffffffffffffffffffffffffffff1673ffffffffffffffffffffffffffffffffffffffff168152602001915050600060405180830381600087803b151561057657600080fd5b5af1151561058357600080fd5b5050503273ffffffffffffffffffffffffffffffffffffffff167f53f2902f2b607b4aac0469383128845ef3d34d7adf4bcc5efa53176d4f5bde1f82604051808273ffffffffffffffffffffffffffffffffffffffff1673ffffffffffffffffffffffffffffffffffffffff16815260200191505060405180910390a2809150509b9a5050505050505050505050565b6000809054906101000a900473ffffffffffffffffffffffffffffffffffffffff1681565b6000809054906101000a900473ffffffffffffffffffffffffffffffffffffffff1673ffffffffffffffffffffffffffffffffffffffff163373ffffffffffffffffffffffffffffffffffffffff1614151561069357600080fd5b600073ffffffffffffffffffffffffffffffffffffffff168173ffffffffffffffffffffffffffffffffffffffff16141515156106cf57600080fd5b8073ffffffffffffffffffffffffffffffffffffffff166000809054906101000a900473ffffffffffffffffffffffffffffffffffffffff1673ffffffffffffffffffffffffffffffffffffffff167f8be0079c531659141344cd1fd0a4f28419497f9722a3daafe3b4186f6b6457e060405160405180910390a3806000806101000a81548173ffffffffffffffffffffffffffffffffffffffff021916908373ffffffffffffffffffffffffffffffffffffffff16021790555050565b818073ffffffffffffffffffffffffffffffffffffffff163373ffffffffffffffffffffffffffffffffffffffff161415156107c857600080fd5b60003390508073ffffffffffffffffffffffffffffffffffffffff16638da5cb5b6040518163ffffffff167c0100000000000000000000000000000000000000000000000000000000028152600401602060405180830381600087803b151561083057600080fd5b5af1151561083d57600080fd5b5050506040518051905073ffffffffffffffffffffffffffffffffffffffff163273ffffffffffffffffffffffffffffffffffffffff1614151561088057600080fd5b8273ffffffffffffffffffffffffffffffffffffffff167f7b9bd42959adfcedbb2ab6c7963f324df889c3c783c70388b9bfbce380f7eb1085604051808273ffffffffffffffffffffffffffffffffffffffff1673ffffffffffffffffffffffffffffffffffffffff16815260200191505060405180910390a250505050565b60018054600181600116156101000203166002900480601f0160208091040260200160405190810160405280929190818152602001828054600181600116156101000203166002900480156109965780601f1061096b57610100808354040283529160200191610996565b820191906000526020600020905b81548152906001019060200180831161097957829003601f168201915b505050505081565b604051611d9d806109af83390190560060606040526040805190810160405280600981526020017f436f6e6e65637465640000000000000000000000000000000000000000000000815250600190805190602001906200005192919062000227565b50600160085560006009556000600a556000600b556000600c556000600d556020604051908101604052806000815250600e90805190602001906200009892919062000227565b503415620000a557600080fd5b60405162001d9d38038062001d9d83398101604052808051820191906020018051820191906020018051820191906020018051906020019091908051906020019091908051906020019091908051906020019091908051906020019091905050336000806101000a81548173ffffffffffffffffffffffffffffffffffffffff021916908373ffffffffffffffffffffffffffffffffffffffff1602179055506000851115156200015557600080fd5b83831115156200016457600080fd5b87600360000190805190602001906200017f92919062000227565b5086600360010190805190602001906200019b92919062000227565b5085600e9080519060200190620001b492919062000227565b508460088190555083600a8190555082600b8190555081600c8190555080600d8190555033600260006101000a81548173ffffffffffffffffffffffffffffffffffffffff021916908373ffffffffffffffffffffffffffffffffffffffff1602179055505050505050505050620002d6565b828054600181600116156101000203166002900490600052602060002090601f016020900481019282601f106200026a57805160ff19168380011785556200029b565b828001600101855582156200029b579182015b828111156200029a5782518255916020019190600101906200027d565b5b509050620002aa9190620002ae565b5090565b620002d391905b80821115620002cf576000816000905550600101620002b5565b5090565b90565b611ab780620002e66000396000f30060606040526004361061015f576000357c0100000000000000000000000000000000000000000000000000000000900463ffffffff1680630b97bc86146101645780630ff9c3911461018d578063220e5ab3146101ea57806322f3e2d414610213578063295b46311461024057806334c92a2c146102ce5780633784f0001461033857806375136faa1461035b57806382d95df51461038457806383197ef0146103a757806386aefcea146103bc5780638da5cb5b146103df578063963671be146104345780639c936c3414610489578063b12a685214610548578063bd2ba85d1461056b578063c24a0f8b14610673578063dc1997ea1461069c578063dc328aa814610796578063e1746af9146107b9578063e4cbecdf1461080a578063e4f0de1e14610833578063e66355a51461085c578063e66a6b22146108a9578063f2fde38b146108d6578063f5074f411461090f578063f8a8fd6d14610948575b600080fd5b341561016f57600080fd5b6101776109d6565b6040518082815260200191505060405180910390f35b341561019857600080fd5b6101e8600480803590602001908201803590602001908080601f016020809104026020016040519081016040528093929190818152602001838380828437820191505050505050919050506109dc565b005b34156101f557600080fd5b6101fd610a73565b6040518082815260200191505060405180910390f35b341561021e57600080fd5b610226610a79565b604051808215151515815260200191505060405180910390f35b341561024b57600080fd5b610253610a8c565b6040518080602001828103825283818151815260200191508051906020019080838360005b83811015610293578082015181840152602081019050610278565b50505050905090810190601f1680156102c05780820380516001836020036101000a031916815260200191505b509250505060405180910390f35b34156102d957600080fd5b61033660048080356000191690602001909190803590602001908201803590602001908080601f01602080910402602001604051908101604052809392919081815260200183838082843782019150505050505091905050610b2a565b005b341561034357600080fd5b6103596004808035906020019091905050610c52565b005b341561036657600080fd5b61036e610cd9565b6040518082815260200191505060405180910390f35b341561038f57600080fd5b6103a56004808035906020019091905050610cdf565b005b34156103b257600080fd5b6103ba610d66565b005b34156103c757600080fd5b6103dd6004808035906020019091905050610dfb565b005b34156103ea57600080fd5b6103f2610e82565b604051808273ffffffffffffffffffffffffffffffffffffffff1673ffffffffffffffffffffffffffffffffffffffff16815260200191505060405180910390f35b341561043f57600080fd5b610447610ea7565b604051808273ffffffffffffffffffffffffffffffffffffffff1673ffffffffffffffffffffffffffffffffffffffff16815260200191505060405180910390f35b341561049457600080fd5b610546600480803590602001908201803590602001908080601f0160208091040260200160405190810160405280939291908181526020018383808284378201915050505050509190803590602001908201803590602001908080601f0160208091040260200160405190810160405280939291908181526020018383808284378201915050505050509190803573ffffffffffffffffffffffffffffffffffffffff16906020019091905050610ecd565b005b341561055357600080fd5b6105696004808035906020019091905050611136565b005b341561057657600080fd5b61058c60048080359060200190919050506111bd565b604051808060200180602001838103835285818151815260200191508051906020019080838360005b838110156105d05780820151818401526020810190506105b5565b50505050905090810190601f1680156105fd5780820380516001836020036101000a031916815260200191505b50838103825284818151815260200191508051906020019080838360005b8381101561063657808201518184015260208101905061061b565b50505050905090810190601f1680156106635780820380516001836020036101000a031916815260200191505b5094505050505060405180910390f35b341561067e57600080fd5b610686611320565b6040518082815260200191505060405180910390f35b34156106a757600080fd5b6106af611326565b604051808060200180602001838103835285818151815260200191508051906020019080838360005b838110156106f35780820151818401526020810190506106d8565b50505050905090810190601f1680156107205780820380516001836020036101000a031916815260200191505b50838103825284818151815260200191508051906020019080838360005b8381101561075957808201518184015260208101905061073e565b50505050905090810190601f1680156107865780820380516001836020036101000a031916815260200191505b5094505050505060405180910390f35b34156107a157600080fd5b6107b76004808035906020019091905050611468565b005b34156107c457600080fd5b6107f0600480803573ffffffffffffffffffffffffffffffffffffffff169060200190919050506114fe565b604051808215151515815260200191505060405180910390f35b341561081557600080fd5b61081d61151e565b6040518082815260200191505060405180910390f35b341561083e57600080fd5b610846611524565b6040518082815260200191505060405180910390f35b341561086757600080fd5b610893600480803573ffffffffffffffffffffffffffffffffffffffff1690602001909190505061152a565b6040518082815260200191505060405180910390f35b34156108b457600080fd5b6108bc611542565b604051808215151515815260200191505060405180910390f35b34156108e157600080fd5b61090d600480803573ffffffffffffffffffffffffffffffffffffffff16906020019091905050611555565b005b341561091a57600080fd5b610946600480803573ffffffffffffffffffffffffffffffffffffffff169060200190919050506116aa565b005b341561095357600080fd5b61095b61171e565b6040518080602001828103825283818151815260200191508051906020019080838360005b8381101561099b578082015181840152602081019050610980565b50505050905090810190601f1680156109c85780820380516001836020036101000a031916815260200191505b509250505060405180910390f35b600a5481565b6000809054906101000a900473ffffffffffffffffffffffffffffffffffffffff1673ffffffffffffffffffffffffffffffffffffffff163373ffffffffffffffffffffffffffffffffffffffff16141515610a3757600080fd5b60001515600f60019054906101000a900460ff161515141515610a5957600080fd5b80600e9080519060200190610a6f9291906118ad565b5050565b600c5481565b600f60009054906101000a900460ff1681565b600e8054600181600116156101000203166002900480601f016020809104026020016040519081016040528092919081815260200182805460018160011615610100020316600290048015610b225780601f10610af757610100808354040283529160200191610b22565b820191906000526020600020905b815481529060010190602001808311610b0557829003601f168201915b505050505081565b610b3482826117bc565b73ffffffffffffffffffffffffffffffffffffffff163373ffffffffffffffffffffffffffffffffffffffff16148015610bd0575060405180807f19457468657265756d205369676e6564204d6573736167653a0a37492041475281526020017f454500000000000000000000000000000000000000000000000000000000000081525060220190506040518091039020600019168260001916145b1515610bdb57600080fd5b6001600760003373ffffffffffffffffffffffffffffffffffffffff1673ffffffffffffffffffffffffffffffffffffffff16815260200190815260200160002060006101000a81548160ff0219169083151502179055506001600f60016101000a81548160ff0219169083151502179055505050565b6000809054906101000a900473ffffffffffffffffffffffffffffffffffffffff1673ffffffffffffffffffffffffffffffffffffffff163373ffffffffffffffffffffffffffffffffffffffff16141515610cad57600080fd5b60001515600f60019054906101000a900460ff161515141515610ccf57600080fd5b80600b8190555050565b60095481565b6000809054906101000a900473ffffffffffffffffffffffffffffffffffffffff1673ffffffffffffffffffffffffffffffffffffffff163373ffffffffffffffffffffffffffffffffffffffff16141515610d3a57600080fd5b60001515600f60019054906101000a900460ff161515141515610d5c57600080fd5b80600a8190555050565b6000809054906101000a900473ffffffffffffffffffffffffffffffffffffffff1673ffffffffffffffffffffffffffffffffffffffff163373ffffffffffffffffffffffffffffffffffffffff16141515610dc157600080fd5b6000809054906101000a900473ffffffffffffffffffffffffffffffffffffffff1673ffffffffffffffffffffffffffffffffffffffff16ff5b6000809054906101000a900473ffffffffffffffffffffffffffffffffffffffff1673ffffffffffffffffffffffffffffffffffffffff163373ffffffffffffffffffffffffffffffffffffffff16141515610e5657600080fd5b60001515600f60019054906101000a900460ff161515141515610e7857600080fd5b80600c8190555050565b6000809054906101000a900473ffffffffffffffffffffffffffffffffffffffff1681565b600260009054906101000a900473ffffffffffffffffffffffffffffffffffffffff1681565b60008060009054906101000a900473ffffffffffffffffffffffffffffffffffffffff1673ffffffffffffffffffffffffffffffffffffffff163373ffffffffffffffffffffffffffffffffffffffff16141515610f2a57600080fd5b60001515600f60019054906101000a900460ff161515141515610f4c57600080fd5b600854600954101515610f5e57600080fd5b60058054806001018281610f72919061192d565b9160005260206000209060020201600060408051908101604052808881526020018781525090919091506000820151816000019080519060200190610fb892919061195f565b506020820151816001019080519060200190610fd592919061195f565b505050506009600081548092919060010191905055600660008473ffffffffffffffffffffffffffffffffffffffff1673ffffffffffffffffffffffffffffffffffffffff16815260200190815260200160002081905550600260009054906101000a900473ffffffffffffffffffffffffffffffffffffffff1690508073ffffffffffffffffffffffffffffffffffffffff1663f7faf1a730846040518363ffffffff167c0100000000000000000000000000000000000000000000000000000000028152600401808373ffffffffffffffffffffffffffffffffffffffff1673ffffffffffffffffffffffffffffffffffffffff1681526020018273ffffffffffffffffffffffffffffffffffffffff1673ffffffffffffffffffffffffffffffffffffffff16815260200192505050600060405180830381600087803b151561112057600080fd5b5af1151561112d57600080fd5b50505050505050565b6000809054906101000a900473ffffffffffffffffffffffffffffffffffffffff1673ffffffffffffffffffffffffffffffffffffffff163373ffffffffffffffffffffffffffffffffffffffff1614151561119157600080fd5b60001515600f60019054906101000a900460ff1615151415156111b357600080fd5b80600d8190555050565b6005818154811015156111cc57fe5b9060005260206000209060020201600091509050806000018054600181600116156101000203166002900480601f0160208091040260200160405190810160405280929190818152602001828054600181600116156101000203166002900480156112785780601f1061124d57610100808354040283529160200191611278565b820191906000526020600020905b81548152906001019060200180831161125b57829003601f168201915b505050505090806001018054600181600116156101000203166002900480601f0160208091040260200160405190810160405280929190818152602001828054600181600116156101000203166002900480156113165780601f106112eb57610100808354040283529160200191611316565b820191906000526020600020905b8154815290600101906020018083116112f957829003601f168201915b5050505050905082565b600b5481565b6003806000018054600181600116156101000203166002900480601f0160208091040260200160405190810160405280929190818152602001828054600181600116156101000203166002900480156113c05780601f10611395576101008083540402835291602001916113c0565b820191906000526020600020905b8154815290600101906020018083116113a357829003601f168201915b505050505090806001018054600181600116156101000203166002900480601f01602080910402602001604051908101604052809291908181526020018280546001816001161561010002031660029004801561145e5780601f106114335761010080835404028352916020019161145e565b820191906000526020600020905b81548152906001019060200180831161144157829003601f168201915b5050505050905082565b6000809054906101000a900473ffffffffffffffffffffffffffffffffffffffff1673ffffffffffffffffffffffffffffffffffffffff163373ffffffffffffffffffffffffffffffffffffffff161415156114c357600080fd5b60001515600f60019054906101000a900460ff1615151415156114e557600080fd5b6000811115156114f457600080fd5b8060088190555050565b60076020528060005260406000206000915054906101000a900460ff1681565b600d5481565b60085481565b60066020528060005260406000206000915090505481565b600f60019054906101000a900460ff1681565b6000809054906101000a900473ffffffffffffffffffffffffffffffffffffffff1673ffffffffffffffffffffffffffffffffffffffff163373ffffffffffffffffffffffffffffffffffffffff161415156115b057600080fd5b600073ffffffffffffffffffffffffffffffffffffffff168173ffffffffffffffffffffffffffffffffffffffff16141515156115ec57600080fd5b8073ffffffffffffffffffffffffffffffffffffffff166000809054906101000a900473ffffffffffffffffffffffffffffffffffffffff1673ffffffffffffffffffffffffffffffffffffffff167f8be0079c531659141344cd1fd0a4f28419497f9722a3daafe3b4186f6b6457e060405160405180910390a3806000806101000a81548173ffffffffffffffffffffffffffffffffffffffff021916908373ffffffffffffffffffffffffffffffffffffffff16021790555050565b6000809054906101000a900473ffffffffffffffffffffffffffffffffffffffff1673ffffffffffffffffffffffffffffffffffffffff163373ffffffffffffffffffffffffffffffffffffffff1614151561170557600080fd5b8073ffffffffffffffffffffffffffffffffffffffff16ff5b60018054600181600116156101000203166002900480601f0160208091040260200160405190810160405280929190818152602001828054600181600116156101000203166002900480156117b45780601f10611789576101008083540402835291602001916117b4565b820191906000526020600020905b81548152906001019060200180831161179757829003601f168201915b505050505081565b600080600080604185511415156117d657600093506118a4565b6020850151925060408501519150606085015160001a9050601b8160ff16101561180157601b810190505b601b8160ff16141580156118195750601c8160ff1614155b1561182757600093506118a4565b600186828585604051600081526020016040526040518085600019166000191681526020018460ff1660ff1681526020018360001916600019168152602001826000191660001916815260200194505050505060206040516020810390808403906000865af1151561189857600080fd5b50506020604051035193505b50505092915050565b828054600181600116156101000203166002900490600052602060002090601f016020900481019282601f106118ee57805160ff191683800117855561191c565b8280016001018555821561191c579182015b8281111561191b578251825591602001919060010190611900565b5b50905061192991906119df565b5090565b81548183558181151161195a576002028160020283600052602060002091820191016119599190611a04565b5b505050565b828054600181600116156101000203166002900490600052602060002090601f016020900481019282601f106119a057805160ff19168380011785556119ce565b828001600101855582156119ce579182015b828111156119cd5782518255916020019190600101906119b2565b5b5090506119db91906119df565b5090565b611a0191905b808211156119fd5760008160009055506001016119e5565b5090565b90565b611a4091905b80821115611a3c5760008082016000611a239190611a43565b600182016000611a339190611a43565b50600201611a0a565b5090565b90565b50805460018160011615610100020316600290046000825580601f10611a695750611a88565b601f016020900490600052602060002090810190611a8791906119df565b5b505600a165627a7a72305820c01ddf782e66ba01fae604041b2c5074a4d0c13ae89ac707c58b290f34b3b1200029a165627a7a7230582039f8939b5a59328920024bb90cca41f12ad96107afc2c7bc90257b5173c10b140029",
  "source": "pragma solidity ^0.4.21;\n\nimport \"zeppelin-solidity/contracts/ownership/Ownable.sol\";\nimport \"./smartlease.sol\";\n\ncontract SmartLeaseFactory is Ownable {\n\n    event NewLease(address contract_address, address indexed landlord);\n    event NewTenant(address contract_address, address indexed tenant);\n\tevent DestroyLease(address indexed contract_address);\n\n    string public test = \"Connected\";\n\n    // function createContract(string _first, string _last) external returns (SmartLease leaseAddress) {\n    //     SmartLease newContract = new SmartLease(_first, _last);\n    //     newContract.transferOwnership(tx.origin);\n    //     emit NewLease(newContract, tx.origin);\n    //     return newContract;\n    // }\n\n\tmodifier landlordOnly() {\n\t\tSmartLease existingLease = SmartLease(msg.sender);\n\t\trequire(tx.origin == existingLease.owner());\n\t\t_;\n\t}\n\n\tmodifier smartleaseOnly(address _lease_address) {\n\t\trequire(msg.sender == _lease_address);\n\t\t_;\n\t}\n\n\tfunction createContract(\n\t\tstring _landlordFirst, \n\t\tstring _landlordLast,\n\t\tstring _googlePlaceId,\n\t\tuint _maxTenants,\n\t\tuint _startDate, \n\t\tuint _endDate,\n\t\tuint _securityDeposit, \n\t\tuint _rent\n\t\t) external returns (SmartLease leaseAddress)\n\t{\n\t\tSmartLease newContract = new SmartLease(_landlordFirst, _landlordLast,\n\t\t\t\t\t\t\t\t\t\t\t\t_googlePlaceId,\n\t\t\t\t\t\t\t\t\t\t\t\t_maxTenants,\n\t\t\t\t\t\t\t\t\t\t\t\t_startDate, _endDate,\n\t\t\t\t\t\t\t\t\t\t\t\t_securityDeposit, _rent);\n\t\tnewContract.transferOwnership(tx.origin);\n        emit NewLease(newContract, tx.origin);\n        return newContract;\n    }\n\n\tfunction emitNewTenant(address _lease_address, address _tenant_address) public smartleaseOnly(_lease_address) landlordOnly {\n\t\temit NewTenant(_lease_address, _tenant_address);\n\t}\n\n\tfunction emitDestroyLease(address _lease_address) public smartleaseOnly(_lease_address) landlordOnly {\n\t\temit DestroyLease(_lease_address);\n\t}\n}",
  "sourcePath": "/Users/ABMBP/Holberton/Blockchain/SmartLeaseMain/contracts/smartleasefactory.sol",
  "compiler": {
    "name": "solc",
    "version": "0.4.21+commit.dfe3193c.Emscripten.clang"
  },
  "schemaVersion": "2.0.0",
  "updatedAt": "2018-04-20T05:35:06.454Z"
}