{
  "contractName": "SmartLease",
  "abi": [
    {
      "constant": true,
      "inputs": [],
      "name": "startDate",
      "outputs": [
        {
          "name": "",
          "type": "uint256"
        }
      ],
      "payable": false,
      "stateMutability": "view",
      "type": "function"
    },
    {
      "constant": true,
      "inputs": [],
      "name": "securityDeposit",
      "outputs": [
        {
          "name": "",
          "type": "uint256"
        }
      ],
      "payable": false,
      "stateMutability": "view",
      "type": "function"
    },
    {
      "constant": true,
      "inputs": [],
      "name": "numTenants",
      "outputs": [
        {
          "name": "",
          "type": "uint256"
        }
      ],
      "payable": false,
      "stateMutability": "view",
      "type": "function"
    },
    {
      "constant": true,
      "inputs": [],
      "name": "owner",
      "outputs": [
        {
          "name": "",
          "type": "address"
        }
      ],
      "payable": false,
      "stateMutability": "view",
      "type": "function"
    },
    {
      "constant": true,
      "inputs": [
        {
          "name": "",
          "type": "uint256"
        }
      ],
      "name": "tenants",
      "outputs": [
        {
          "name": "firstName",
          "type": "string"
        },
        {
          "name": "lastName",
          "type": "string"
        }
      ],
      "payable": false,
      "stateMutability": "view",
      "type": "function"
    },
    {
      "constant": true,
      "inputs": [],
      "name": "endDate",
      "outputs": [
        {
          "name": "",
          "type": "uint256"
        }
      ],
      "payable": false,
      "stateMutability": "view",
      "type": "function"
    },
    {
      "constant": true,
      "inputs": [],
      "name": "googlePropertyId",
      "outputs": [
        {
          "name": "",
          "type": "bytes32"
        }
      ],
      "payable": false,
      "stateMutability": "view",
      "type": "function"
    },
    {
      "constant": true,
      "inputs": [],
      "name": "landlord",
      "outputs": [
        {
          "name": "firstName",
          "type": "string"
        },
        {
          "name": "lastName",
          "type": "string"
        }
      ],
      "payable": false,
      "stateMutability": "view",
      "type": "function"
    },
    {
      "constant": true,
      "inputs": [
        {
          "name": "",
          "type": "address"
        }
      ],
      "name": "tenantToSigned",
      "outputs": [
        {
          "name": "",
          "type": "bool"
        }
      ],
      "payable": false,
      "stateMutability": "view",
      "type": "function"
    },
    {
      "constant": true,
      "inputs": [],
      "name": "maxTenants",
      "outputs": [
        {
          "name": "",
          "type": "uint256"
        }
      ],
      "payable": false,
      "stateMutability": "view",
      "type": "function"
    },
    {
      "constant": true,
      "inputs": [
        {
          "name": "",
          "type": "address"
        }
      ],
      "name": "tenantAddressToId",
      "outputs": [
        {
          "name": "",
          "type": "uint256"
        }
      ],
      "payable": false,
      "stateMutability": "view",
      "type": "function"
    },
    {
      "constant": false,
      "inputs": [
        {
          "name": "newOwner",
          "type": "address"
        }
      ],
      "name": "transferOwnership",
      "outputs": [],
      "payable": false,
      "stateMutability": "nonpayable",
      "type": "function"
    },
    {
      "inputs": [
        {
          "name": "_firstName",
          "type": "string"
        },
        {
          "name": "_lastName",
          "type": "string"
        }
      ],
      "payable": false,
      "stateMutability": "nonpayable",
      "type": "constructor"
    },
    {
      "anonymous": false,
      "inputs": [
        {
          "indexed": true,
          "name": "landlord",
          "type": "address"
        }
      ],
      "name": "NewSmartLease",
      "type": "event"
    },
    {
      "anonymous": false,
      "inputs": [
        {
          "indexed": false,
          "name": "firstName",
          "type": "string"
        },
        {
          "indexed": false,
          "name": "lastName",
          "type": "string"
        }
      ],
      "name": "NewTenant",
      "type": "event"
    },
    {
      "anonymous": false,
      "inputs": [
        {
          "indexed": true,
          "name": "tenant",
          "type": "address"
        }
      ],
      "name": "ApproveSmartLease",
      "type": "event"
    },
    {
      "anonymous": false,
      "inputs": [
        {
          "indexed": true,
          "name": "previousOwner",
          "type": "address"
        },
        {
          "indexed": true,
          "name": "newOwner",
          "type": "address"
        }
      ],
      "name": "OwnershipTransferred",
      "type": "event"
    },
    {
      "constant": false,
      "inputs": [
        {
          "name": "_hash",
          "type": "bytes32"
        },
        {
          "name": "_sig",
          "type": "bytes"
        }
      ],
      "name": "signLease",
      "outputs": [],
      "payable": false,
      "stateMutability": "nonpayable",
      "type": "function"
    },
    {
      "constant": false,
      "inputs": [
        {
          "name": "_firstName",
          "type": "string"
        },
        {
          "name": "_lastName",
          "type": "string"
        }
      ],
      "name": "addTenant",
      "outputs": [],
      "payable": false,
      "stateMutability": "nonpayable",
      "type": "function"
    },
    {
      "constant": false,
      "inputs": [
        {
          "name": "_year",
          "type": "uint16"
        },
        {
          "name": "_month",
          "type": "uint8"
        },
        {
          "name": "_day",
          "type": "uint8"
        }
      ],
      "name": "setStartDate",
      "outputs": [],
      "payable": false,
      "stateMutability": "nonpayable",
      "type": "function"
    },
    {
      "constant": false,
      "inputs": [
        {
          "name": "_year",
          "type": "uint16"
        },
        {
          "name": "_month",
          "type": "uint8"
        },
        {
          "name": "_day",
          "type": "uint8"
        }
      ],
      "name": "setEndDate",
      "outputs": [],
      "payable": false,
      "stateMutability": "nonpayable",
      "type": "function"
    },
    {
      "constant": false,
      "inputs": [
        {
          "name": "_securityDepositAmount",
          "type": "uint256"
        }
      ],
      "name": "setSecurityDeposit",
      "outputs": [],
      "payable": false,
      "stateMutability": "nonpayable",
      "type": "function"
    },
    {
      "constant": false,
      "inputs": [
        {
          "name": "_googlePropertyId",
          "type": "bytes32"
        }
      ],
      "name": "setGooglePropertyId",
      "outputs": [],
      "payable": false,
      "stateMutability": "nonpayable",
      "type": "function"
    }
  ],
  "bytecode": "0x60606040526000600160006101000a81548173ffffffffffffffffffffffffffffffffffffffff021916908373ffffffffffffffffffffffffffffffffffffffff160217905550600160009054906101000a900473ffffffffffffffffffffffffffffffffffffffff16600260006101000a81548173ffffffffffffffffffffffffffffffffffffffff021916908373ffffffffffffffffffffffffffffffffffffffff1602179055503415620000b557600080fd5b604051620017eb380380620017eb83398101604052808051820191906020018051820191905050336000806101000a81548173ffffffffffffffffffffffffffffffffffffffff021916908373ffffffffffffffffffffffffffffffffffffffff160217905550816003600001908051906020019062000137929190620001c0565b50806003600101908051906020019062000153929190620001c0565b506000809054906101000a900473ffffffffffffffffffffffffffffffffffffffff1673ffffffffffffffffffffffffffffffffffffffff167f7bb2a51e5a3ae16ccc7157f3270fe170cee4fb5e7ebc9090e82ad0a0432f6e1860405160405180910390a250506200026f565b828054600181600116156101000203166002900490600052602060002090601f016020900481019282601f106200020357805160ff191683800117855562000234565b8280016001018555821562000234579182015b828111156200023357825182559160200191906001019062000216565b5b50905062000243919062000247565b5090565b6200026c91905b80821115620002685760008160009055506001016200024e565b5090565b90565b61156c806200027f6000396000f3006060604052600436106100fc576000357c0100000000000000000000000000000000000000000000000000000000900463ffffffff1680630b97bc8614610101578063220e5ab31461012a57806334c92a2c146101535780634cf3d6d4146101bd57806375136faa1461025d5780637ec37f2c1461028657806386aefcea146102c55780638da5cb5b146102e85780639f6627231461033d578063bd2ba85d14610364578063c24a0f8b1461046c578063c36ff3dd14610495578063c601e54a146104d4578063dc1997ea14610505578063e1746af9146105ff578063e4f0de1e14610650578063e66355a514610679578063f2fde38b146106c6575b600080fd5b341561010c57600080fd5b6101146106ff565b6040518082815260200191505060405180910390f35b341561013557600080fd5b61013d610705565b6040518082815260200191505060405180910390f35b341561015e57600080fd5b6101bb60048080356000191690602001909190803590602001908201803590602001908080601f0160208091040260200160405190810160405280939291908181526020018383808284378201915050505050509190505061070b565b005b34156101c857600080fd5b61025b600480803590602001908201803590602001908080601f0160208091040260200160405190810160405280939291908181526020018383808284378201915050505050509190803590602001908201803590602001908080601f0160208091040260200160405190810160405280939291908181526020018383808284378201915050505050509190505061080d565b005b341561026857600080fd5b610270610a36565b6040518082815260200191505060405180910390f35b341561029157600080fd5b6102c3600480803561ffff1690602001909190803560ff1690602001909190803560ff16906020019091905050610a3c565b005b34156102d057600080fd5b6102e66004808035906020019091905050610bd9565b005b34156102f357600080fd5b6102fb610c60565b604051808273ffffffffffffffffffffffffffffffffffffffff1673ffffffffffffffffffffffffffffffffffffffff16815260200191505060405180910390f35b341561034857600080fd5b610362600480803560001916906020019091905050610c85565b005b341561036f57600080fd5b6103856004808035906020019091905050610d10565b604051808060200180602001838103835285818151815260200191508051906020019080838360005b838110156103c95780820151818401526020810190506103ae565b50505050905090810190601f1680156103f65780820380516001836020036101000a031916815260200191505b50838103825284818151815260200191508051906020019080838360005b8381101561042f578082015181840152602081019050610414565b50505050905090810190601f16801561045c5780820380516001836020036101000a031916815260200191505b5094505050505060405180910390f35b341561047757600080fd5b61047f610e73565b6040518082815260200191505060405180910390f35b34156104a057600080fd5b6104d2600480803561ffff1690602001909190803560ff1690602001909190803560ff16906020019091905050610e79565b005b34156104df57600080fd5b6104e7611016565b60405180826000191660001916815260200191505060405180910390f35b341561051057600080fd5b61051861101c565b604051808060200180602001838103835285818151815260200191508051906020019080838360005b8381101561055c578082015181840152602081019050610541565b50505050905090810190601f1680156105895780820380516001836020036101000a031916815260200191505b50838103825284818151815260200191508051906020019080838360005b838110156105c25780820151818401526020810190506105a7565b50505050905090810190601f1680156105ef5780820380516001836020036101000a031916815260200191505b5094505050505060405180910390f35b341561060a57600080fd5b610636600480803573ffffffffffffffffffffffffffffffffffffffff1690602001909190505061115e565b604051808215151515815260200191505060405180910390f35b341561065b57600080fd5b61066361117e565b6040518082815260200191505060405180910390f35b341561068457600080fd5b6106b0600480803573ffffffffffffffffffffffffffffffffffffffff16906020019091905050611184565b6040518082815260200191505060405180910390f35b34156106d157600080fd5b6106fd600480803573ffffffffffffffffffffffffffffffffffffffff1690602001909190505061119c565b005b600a5481565b600c5481565b61071582826112f1565b73ffffffffffffffffffffffffffffffffffffffff163373ffffffffffffffffffffffffffffffffffffffff1614801561078b575060405180807f492041475245450000000000000000000000000000000000000000000000000081525060070190506040518091039020600019168260001916145b151561079657600080fd5b6001600760003373ffffffffffffffffffffffffffffffffffffffff1673ffffffffffffffffffffffffffffffffffffffff16815260200190815260200160002060006101000a81548160ff0219169083151502179055506001600e60016101000a81548160ff0219169083151502179055505050565b6000809054906101000a900473ffffffffffffffffffffffffffffffffffffffff1673ffffffffffffffffffffffffffffffffffffffff163373ffffffffffffffffffffffffffffffffffffffff1614151561086857600080fd5b60001515600e60019054906101000a900460ff16151514151561088a57600080fd5b60085460095410151561089c57600080fd5b600580548060010182816108b091906113e2565b91600052602060002090600202016000604080519081016040528086815260200185815250909190915060008201518160000190805190602001906108f6929190611414565b506020820151816001019080519060200190610913929190611414565b505050506009600081548092919060010191905055507f73516a27186c46c5e90e786032cb9658f8d9bedddae33b6b66b710b4a74f8b2d8282604051808060200180602001838103835285818151815260200191508051906020019080838360005b83811015610990578082015181840152602081019050610975565b50505050905090810190601f1680156109bd5780820380516001836020036101000a031916815260200191505b50838103825284818151815260200191508051906020019080838360005b838110156109f65780820151818401526020810190506109db565b50505050905090810190601f168015610a235780820380516001836020036101000a031916815260200191505b5094505050505060405180910390a15050565b60095481565b6000809054906101000a900473ffffffffffffffffffffffffffffffffffffffff1673ffffffffffffffffffffffffffffffffffffffff163373ffffffffffffffffffffffffffffffffffffffff16141515610a9757600080fd5b60001515600e60019054906101000a900460ff161515141515610ab957600080fd5b600160009054906101000a900473ffffffffffffffffffffffffffffffffffffffff1660008173ffffffffffffffffffffffffffffffffffffffff1614151515610b0257600080fd5b600260009054906101000a900473ffffffffffffffffffffffffffffffffffffffff1673ffffffffffffffffffffffffffffffffffffffff16638c8d98a08585856040518463ffffffff167c0100000000000000000000000000000000000000000000000000000000028152600401808461ffff1661ffff1681526020018360ff1660ff1681526020018260ff1660ff1681526020019350505050602060405180830381600087803b1515610bb657600080fd5b5af11515610bc357600080fd5b50505060405180519050600b8190555050505050565b6000809054906101000a900473ffffffffffffffffffffffffffffffffffffffff1673ffffffffffffffffffffffffffffffffffffffff163373ffffffffffffffffffffffffffffffffffffffff16141515610c3457600080fd5b60001515600e60019054906101000a900460ff161515141515610c5657600080fd5b80600c8190555050565b6000809054906101000a900473ffffffffffffffffffffffffffffffffffffffff1681565b6000809054906101000a900473ffffffffffffffffffffffffffffffffffffffff1673ffffffffffffffffffffffffffffffffffffffff163373ffffffffffffffffffffffffffffffffffffffff16141515610ce057600080fd5b60001515600e60019054906101000a900460ff161515141515610d0257600080fd5b80600d816000191690555050565b600581815481101515610d1f57fe5b9060005260206000209060020201600091509050806000018054600181600116156101000203166002900480601f016020809104026020016040519081016040528092919081815260200182805460018160011615610100020316600290048015610dcb5780601f10610da057610100808354040283529160200191610dcb565b820191906000526020600020905b815481529060010190602001808311610dae57829003601f168201915b505050505090806001018054600181600116156101000203166002900480601f016020809104026020016040519081016040528092919081815260200182805460018160011615610100020316600290048015610e695780601f10610e3e57610100808354040283529160200191610e69565b820191906000526020600020905b815481529060010190602001808311610e4c57829003601f168201915b5050505050905082565b600b5481565b6000809054906101000a900473ffffffffffffffffffffffffffffffffffffffff1673ffffffffffffffffffffffffffffffffffffffff163373ffffffffffffffffffffffffffffffffffffffff16141515610ed457600080fd5b60001515600e60019054906101000a900460ff161515141515610ef657600080fd5b600160009054906101000a900473ffffffffffffffffffffffffffffffffffffffff1660008173ffffffffffffffffffffffffffffffffffffffff1614151515610f3f57600080fd5b600260009054906101000a900473ffffffffffffffffffffffffffffffffffffffff1673ffffffffffffffffffffffffffffffffffffffff16638c8d98a08585856040518463ffffffff167c0100000000000000000000000000000000000000000000000000000000028152600401808461ffff1661ffff1681526020018360ff1660ff1681526020018260ff1660ff1681526020019350505050602060405180830381600087803b1515610ff357600080fd5b5af1151561100057600080fd5b50505060405180519050600a8190555050505050565b600d5481565b6003806000018054600181600116156101000203166002900480601f0160208091040260200160405190810160405280929190818152602001828054600181600116156101000203166002900480156110b65780601f1061108b576101008083540402835291602001916110b6565b820191906000526020600020905b81548152906001019060200180831161109957829003601f168201915b505050505090806001018054600181600116156101000203166002900480601f0160208091040260200160405190810160405280929190818152602001828054600181600116156101000203166002900480156111545780601f1061112957610100808354040283529160200191611154565b820191906000526020600020905b81548152906001019060200180831161113757829003601f168201915b5050505050905082565b60076020528060005260406000206000915054906101000a900460ff1681565b60085481565b60066020528060005260406000206000915090505481565b6000809054906101000a900473ffffffffffffffffffffffffffffffffffffffff1673ffffffffffffffffffffffffffffffffffffffff163373ffffffffffffffffffffffffffffffffffffffff161415156111f757600080fd5b600073ffffffffffffffffffffffffffffffffffffffff168173ffffffffffffffffffffffffffffffffffffffff161415151561123357600080fd5b8073ffffffffffffffffffffffffffffffffffffffff166000809054906101000a900473ffffffffffffffffffffffffffffffffffffffff1673ffffffffffffffffffffffffffffffffffffffff167f8be0079c531659141344cd1fd0a4f28419497f9722a3daafe3b4186f6b6457e060405160405180910390a3806000806101000a81548173ffffffffffffffffffffffffffffffffffffffff021916908373ffffffffffffffffffffffffffffffffffffffff16021790555050565b6000806000806041855114151561130b57600093506113d9565b6020850151925060408501519150606085015160001a9050601b8160ff16101561133657601b810190505b601b8160ff161415801561134e5750601c8160ff1614155b1561135c57600093506113d9565b600186828585604051600081526020016040526040518085600019166000191681526020018460ff1660ff1681526020018360001916600019168152602001826000191660001916815260200194505050505060206040516020810390808403906000865af115156113cd57600080fd5b50506020604051035193505b50505092915050565b81548183558181151161140f5760020281600202836000526020600020918201910161140e9190611494565b5b505050565b828054600181600116156101000203166002900490600052602060002090601f016020900481019282601f1061145557805160ff1916838001178555611483565b82800160010185558215611483579182015b82811115611482578251825591602001919060010190611467565b5b50905061149091906114d3565b5090565b6114d091905b808211156114cc57600080820160006114b391906114f8565b6001820160006114c391906114f8565b5060020161149a565b5090565b90565b6114f591905b808211156114f15760008160009055506001016114d9565b5090565b90565b50805460018160011615610100020316600290046000825580601f1061151e575061153d565b601f01602090049060005260206000209081019061153c91906114d3565b5b505600a165627a7a72305820d35c76685792fb887ec8e80e37144c8cba3613d885c126e329e8ffe5bb05b9a80029",
  "source": "pragma solidity ^0.4.21;\n\nimport \"zeppelin-solidity/contracts/ownership/Ownable.sol\";\nimport \"zeppelin-solidity/contracts/ECRecovery.sol\";\n\ncontract DateTimeAPI {\n    /*\n    *  Abstract contract for interfacing with the DateTime contract.\n    *  See: https://github.com/pipermerriam/ethereum-datetime/blob/master/contracts/DateTime.sol\n    */\n    function isLeapYear(uint16 year) public pure returns (bool);\n    function getYear(uint timestamp) public pure returns (uint16);\n    function getMonth(uint timestamp) public pure returns (uint8);\n    function getDay(uint timestamp) public pure returns (uint8);\n    function getHour(uint timestamp) public pure returns (uint8);\n    function getMinute(uint timestamp) public pure returns (uint8);\n    function getSecond(uint timestamp) public pure returns (uint8);\n    function getWeekday(uint timestamp) public pure returns (uint8);\n    function toTimestamp(uint16 year, uint8 month, uint8 day) public pure returns (uint timestamp);\n    function toTimestamp(uint16 year, uint8 month, uint8 day, uint8 hour) public pure returns (uint timestamp);\n    function toTimestamp(uint16 year, uint8 month, uint8 day, uint8 hour, uint8 minute) public pure returns (uint timestamp);\n    function toTimestamp(uint16 year, uint8 month, uint8 day, uint8 hour, uint8 minute, uint8 second) public pure returns (uint timestamp);\n}\n\ncontract SmartLease is Ownable {\n\n    event NewSmartLease(address indexed landlord);\n    event NewTenant(string firstName, string lastName);\n    event ApproveSmartLease(address indexed tenant);\n\n    struct Person {\n        string firstName;\n        string lastName;\n    }\n\n    address dtContract = 0; // main chain address: 0x1a6184CD4C5Bea62B0116de7962EE7315B7bcBce;\n    DateTimeAPI DateTime = DateTimeAPI(dtContract);\n\n    Person public landlord;\n    Person[] public tenants;\n    mapping (address => uint) public tenantAddressToId;\n    mapping (address => bool) public tenantToSigned;\n    uint public maxTenants;\n    uint public numTenants;\n    uint public startDate;\n    uint public endDate;\n    uint public securityDeposit;\n    bytes32 public googlePropertyId;\n    bool isValid;\n    bool isSigned;\n\n    modifier beforeSigning() {\n        require(isSigned == false);\n        _;\n    }\n\n    modifier dateTimeAddressValid(address _dtAddress) {\n        require(_dtAddress != 0);\n        _;\n    }\n\n    function signLease(bytes32 _hash, bytes _sig) public {\n        require(msg.sender == ECRecovery.recover(_hash, _sig) && _hash == keccak256(\"I AGREE\"));\n        tenantToSigned[msg.sender] = true;\n        isSigned = true;\n    }\n\n    function SmartLease(string _firstName, string _lastName) public {\n        landlord.firstName = _firstName;\n        landlord.lastName = _lastName;\n        emit NewSmartLease(owner);\n    }\n\n    function addTenant(string _firstName, string _lastName) public onlyOwner beforeSigning {\n        require(numTenants < maxTenants);\n        tenants.push(Person(_firstName, _lastName));\n        numTenants++;\n        emit NewTenant(_firstName, _lastName);\n    }\n\n    function setStartDate(uint16 _year, uint8 _month, uint8 _day) public onlyOwner beforeSigning dateTimeAddressValid(dtContract) {\n        startDate = DateTime.toTimestamp(_year, _month, _day);\n    }\n\n    function setEndDate(uint16 _year, uint8 _month, uint8 _day) public onlyOwner beforeSigning dateTimeAddressValid(dtContract) {\n        endDate = DateTime.toTimestamp(_year, _month, _day);\n    }\n\n    function setSecurityDeposit(uint _securityDepositAmount) public onlyOwner beforeSigning {\n        securityDeposit = _securityDepositAmount;\n    }\n\n    function setGooglePropertyId(bytes32 _googlePropertyId) public onlyOwner beforeSigning {\n        googlePropertyId = _googlePropertyId;\n    }\n}",
  "sourcePath": "/Users/ABMBP/Holberton/Blockchain/SmartLease/contracts/smartlease.sol",
  "compiler": {
    "name": "solc",
    "version": "0.4.21+commit.dfe3193c.Emscripten.clang"
  },
  "schemaVersion": "2.0.0",
  "updatedAt": "2018-04-09T21:35:37.786Z"
}