{
  "contractName": "SmartLease",
  "abi": [
    {
      "constant": true,
      "inputs": [],
      "name": "startDate",
      "outputs": [
        {
          "name": "",
          "type": "uint256"
        }
      ],
      "payable": false,
      "stateMutability": "view",
      "type": "function"
    },
    {
      "constant": true,
      "inputs": [],
      "name": "securityDeposit",
      "outputs": [
        {
          "name": "",
          "type": "uint256"
        }
      ],
      "payable": false,
      "stateMutability": "view",
      "type": "function"
    },
    {
      "constant": true,
      "inputs": [],
      "name": "isActive",
      "outputs": [
        {
          "name": "",
          "type": "bool"
        }
      ],
      "payable": false,
      "stateMutability": "view",
      "type": "function"
    },
    {
      "constant": true,
      "inputs": [],
      "name": "googlePlaceId",
      "outputs": [
        {
          "name": "",
          "type": "string"
        }
      ],
      "payable": false,
      "stateMutability": "view",
      "type": "function"
    },
    {
      "constant": true,
      "inputs": [],
      "name": "numTenants",
      "outputs": [
        {
          "name": "",
          "type": "uint256"
        }
      ],
      "payable": false,
      "stateMutability": "view",
      "type": "function"
    },
    {
      "constant": true,
      "inputs": [],
      "name": "owner",
      "outputs": [
        {
          "name": "",
          "type": "address"
        }
      ],
      "payable": false,
      "stateMutability": "view",
      "type": "function"
    },
    {
      "constant": true,
      "inputs": [],
      "name": "factoryAddr",
      "outputs": [
        {
          "name": "",
          "type": "address"
        }
      ],
      "payable": false,
      "stateMutability": "view",
      "type": "function"
    },
    {
      "constant": true,
      "inputs": [
        {
          "name": "",
          "type": "uint256"
        }
      ],
      "name": "tenants",
      "outputs": [
        {
          "name": "firstName",
          "type": "string"
        },
        {
          "name": "lastName",
          "type": "string"
        }
      ],
      "payable": false,
      "stateMutability": "view",
      "type": "function"
    },
    {
      "constant": true,
      "inputs": [],
      "name": "endDate",
      "outputs": [
        {
          "name": "",
          "type": "uint256"
        }
      ],
      "payable": false,
      "stateMutability": "view",
      "type": "function"
    },
    {
      "constant": true,
      "inputs": [],
      "name": "landlord",
      "outputs": [
        {
          "name": "firstName",
          "type": "string"
        },
        {
          "name": "lastName",
          "type": "string"
        }
      ],
      "payable": false,
      "stateMutability": "view",
      "type": "function"
    },
    {
      "constant": true,
      "inputs": [
        {
          "name": "",
          "type": "address"
        }
      ],
      "name": "tenantToSigned",
      "outputs": [
        {
          "name": "",
          "type": "bool"
        }
      ],
      "payable": false,
      "stateMutability": "view",
      "type": "function"
    },
    {
      "constant": true,
      "inputs": [],
      "name": "monthlyRent",
      "outputs": [
        {
          "name": "",
          "type": "uint256"
        }
      ],
      "payable": false,
      "stateMutability": "view",
      "type": "function"
    },
    {
      "constant": true,
      "inputs": [],
      "name": "maxTenants",
      "outputs": [
        {
          "name": "",
          "type": "uint256"
        }
      ],
      "payable": false,
      "stateMutability": "view",
      "type": "function"
    },
    {
      "constant": true,
      "inputs": [
        {
          "name": "",
          "type": "address"
        }
      ],
      "name": "tenantAddressToId",
      "outputs": [
        {
          "name": "",
          "type": "uint256"
        }
      ],
      "payable": false,
      "stateMutability": "view",
      "type": "function"
    },
    {
      "constant": true,
      "inputs": [],
      "name": "isSigned",
      "outputs": [
        {
          "name": "",
          "type": "bool"
        }
      ],
      "payable": false,
      "stateMutability": "view",
      "type": "function"
    },
    {
      "constant": false,
      "inputs": [
        {
          "name": "newOwner",
          "type": "address"
        }
      ],
      "name": "transferOwnership",
      "outputs": [],
      "payable": false,
      "stateMutability": "nonpayable",
      "type": "function"
    },
    {
      "inputs": [
        {
          "name": "_firstName",
          "type": "string"
        },
        {
          "name": "_lastName",
          "type": "string"
        }
      ],
      "payable": false,
      "stateMutability": "nonpayable",
      "type": "constructor"
    },
    {
      "anonymous": false,
      "inputs": [
        {
          "indexed": true,
          "name": "landlord",
          "type": "address"
        }
      ],
      "name": "NewSmartLease",
      "type": "event"
    },
    {
      "anonymous": false,
      "inputs": [
        {
          "indexed": true,
          "name": "tenant",
          "type": "address"
        }
      ],
      "name": "ApproveSmartLease",
      "type": "event"
    },
    {
      "anonymous": false,
      "inputs": [
        {
          "indexed": true,
          "name": "previousOwner",
          "type": "address"
        },
        {
          "indexed": true,
          "name": "newOwner",
          "type": "address"
        }
      ],
      "name": "OwnershipTransferred",
      "type": "event"
    },
    {
      "constant": false,
      "inputs": [
        {
          "name": "_hash",
          "type": "bytes32"
        },
        {
          "name": "_sig",
          "type": "bytes"
        }
      ],
      "name": "signLease",
      "outputs": [],
      "payable": false,
      "stateMutability": "nonpayable",
      "type": "function"
    },
    {
      "constant": false,
      "inputs": [
        {
          "name": "_maxTenants",
          "type": "uint256"
        }
      ],
      "name": "setMaxTenants",
      "outputs": [],
      "payable": false,
      "stateMutability": "nonpayable",
      "type": "function"
    },
    {
      "constant": false,
      "inputs": [
        {
          "name": "_firstName",
          "type": "string"
        },
        {
          "name": "_lastName",
          "type": "string"
        },
        {
          "name": "_tenantAddr",
          "type": "address"
        }
      ],
      "name": "addTenant",
      "outputs": [],
      "payable": false,
      "stateMutability": "nonpayable",
      "type": "function"
    },
    {
      "constant": false,
      "inputs": [
        {
          "name": "_year",
          "type": "uint16"
        },
        {
          "name": "_month",
          "type": "uint8"
        },
        {
          "name": "_day",
          "type": "uint8"
        }
      ],
      "name": "setStartDate",
      "outputs": [],
      "payable": false,
      "stateMutability": "nonpayable",
      "type": "function"
    },
    {
      "constant": false,
      "inputs": [
        {
          "name": "_year",
          "type": "uint16"
        },
        {
          "name": "_month",
          "type": "uint8"
        },
        {
          "name": "_day",
          "type": "uint8"
        }
      ],
      "name": "setEndDate",
      "outputs": [],
      "payable": false,
      "stateMutability": "nonpayable",
      "type": "function"
    },
    {
      "constant": false,
      "inputs": [
        {
          "name": "_securityDepositAmount",
          "type": "uint256"
        }
      ],
      "name": "setSecurityDeposit",
      "outputs": [],
      "payable": false,
      "stateMutability": "nonpayable",
      "type": "function"
    },
    {
      "constant": false,
      "inputs": [
        {
          "name": "_rentAmount",
          "type": "uint256"
        }
      ],
      "name": "setRent",
      "outputs": [],
      "payable": false,
      "stateMutability": "nonpayable",
      "type": "function"
    },
    {
      "constant": false,
      "inputs": [
        {
          "name": "_googlePlaceId",
          "type": "string"
        }
      ],
      "name": "setGooglePlaceId",
      "outputs": [],
      "payable": false,
      "stateMutability": "nonpayable",
      "type": "function"
    }
  ],
  "bytecode": "0x60606040526000600160006101000a81548173ffffffffffffffffffffffffffffffffffffffff021916908373ffffffffffffffffffffffffffffffffffffffff160217905550600160009054906101000a900473ffffffffffffffffffffffffffffffffffffffff16600260006101000a81548173ffffffffffffffffffffffffffffffffffffffff021916908373ffffffffffffffffffffffffffffffffffffffff16021790555060016009556000600a556000600b556000600c556000600d556000600e556020604051908101604052806000815250600f9080519060200190620000ef929190620001e4565b503415620000fc57600080fd5b60405162001d1a38038062001d1a83398101604052808051820191906020018051820191905050336000806101000a81548173ffffffffffffffffffffffffffffffffffffffff021916908373ffffffffffffffffffffffffffffffffffffffff16021790555081600460000190805190602001906200017e929190620001e4565b5080600460010190805190602001906200019a929190620001e4565b5033600360006101000a81548173ffffffffffffffffffffffffffffffffffffffff021916908373ffffffffffffffffffffffffffffffffffffffff160217905550505062000293565b828054600181600116156101000203166002900490600052602060002090601f016020900481019282601f106200022757805160ff191683800117855562000258565b8280016001018555821562000258579182015b82811115620002575782518255916020019190600101906200023a565b5b5090506200026791906200026b565b5090565b6200029091905b808211156200028c57600081600090555060010162000272565b5090565b90565b611a7780620002a36000396000f30060606040526004361061013e576000357c0100000000000000000000000000000000000000000000000000000000900463ffffffff1680630b97bc86146101435780630ff9c3911461016c578063220e5ab3146101c957806322f3e2d4146101f2578063295b46311461021f57806334c92a2c146102ad57806375136faa146103175780637ec37f2c1461034057806386aefcea1461037f5780638da5cb5b146103a2578063963671be146103f75780639c936c341461044c578063b12a68521461050b578063bd2ba85d1461052e578063c24a0f8b14610636578063c36ff3dd1461065f578063dc1997ea1461069e578063dc328aa814610798578063e1746af9146107bb578063e4cbecdf1461080c578063e4f0de1e14610835578063e66355a51461085e578063e66a6b22146108ab578063f2fde38b146108d8575b600080fd5b341561014e57600080fd5b610156610911565b6040518082815260200191505060405180910390f35b341561017757600080fd5b6101c7600480803590602001908201803590602001908080601f01602080910402602001604051908101604052809392919081815260200183838082843782019150505050505091905050610917565b005b34156101d457600080fd5b6101dc6109ae565b6040518082815260200191505060405180910390f35b34156101fd57600080fd5b6102056109b4565b604051808215151515815260200191505060405180910390f35b341561022a57600080fd5b6102326109c7565b6040518080602001828103825283818151815260200191508051906020019080838360005b83811015610272578082015181840152602081019050610257565b50505050905090810190601f16801561029f5780820380516001836020036101000a031916815260200191505b509250505060405180910390f35b34156102b857600080fd5b61031560048080356000191690602001909190803590602001908201803590602001908080601f01602080910402602001604051908101604052809392919081815260200183838082843782019150505050505091905050610a65565b005b341561032257600080fd5b61032a610b8d565b6040518082815260200191505060405180910390f35b341561034b57600080fd5b61037d600480803561ffff1690602001909190803560ff1690602001909190803560ff16906020019091905050610b93565b005b341561038a57600080fd5b6103a06004808035906020019091905050610d30565b005b34156103ad57600080fd5b6103b5610db7565b604051808273ffffffffffffffffffffffffffffffffffffffff1673ffffffffffffffffffffffffffffffffffffffff16815260200191505060405180910390f35b341561040257600080fd5b61040a610ddc565b604051808273ffffffffffffffffffffffffffffffffffffffff1673ffffffffffffffffffffffffffffffffffffffff16815260200191505060405180910390f35b341561045757600080fd5b610509600480803590602001908201803590602001908080601f0160208091040260200160405190810160405280939291908181526020018383808284378201915050505050509190803590602001908201803590602001908080601f0160208091040260200160405190810160405280939291908181526020018383808284378201915050505050509190803573ffffffffffffffffffffffffffffffffffffffff16906020019091905050610e02565b005b341561051657600080fd5b61052c600480803590602001909190505061106b565b005b341561053957600080fd5b61054f60048080359060200190919050506110f2565b604051808060200180602001838103835285818151815260200191508051906020019080838360005b83811015610593578082015181840152602081019050610578565b50505050905090810190601f1680156105c05780820380516001836020036101000a031916815260200191505b50838103825284818151815260200191508051906020019080838360005b838110156105f95780820151818401526020810190506105de565b50505050905090810190601f1680156106265780820380516001836020036101000a031916815260200191505b5094505050505060405180910390f35b341561064157600080fd5b610649611255565b6040518082815260200191505060405180910390f35b341561066a57600080fd5b61069c600480803561ffff1690602001909190803560ff1690602001909190803560ff1690602001909190505061125b565b005b34156106a957600080fd5b6106b16113f8565b604051808060200180602001838103835285818151815260200191508051906020019080838360005b838110156106f55780820151818401526020810190506106da565b50505050905090810190601f1680156107225780820380516001836020036101000a031916815260200191505b50838103825284818151815260200191508051906020019080838360005b8381101561075b578082015181840152602081019050610740565b50505050905090810190601f1680156107885780820380516001836020036101000a031916815260200191505b5094505050505060405180910390f35b34156107a357600080fd5b6107b9600480803590602001909190505061153a565b005b34156107c657600080fd5b6107f2600480803573ffffffffffffffffffffffffffffffffffffffff169060200190919050506115d0565b604051808215151515815260200191505060405180910390f35b341561081757600080fd5b61081f6115f0565b6040518082815260200191505060405180910390f35b341561084057600080fd5b6108486115f6565b6040518082815260200191505060405180910390f35b341561086957600080fd5b610895600480803573ffffffffffffffffffffffffffffffffffffffff169060200190919050506115fc565b6040518082815260200191505060405180910390f35b34156108b657600080fd5b6108be611614565b604051808215151515815260200191505060405180910390f35b34156108e357600080fd5b61090f600480803573ffffffffffffffffffffffffffffffffffffffff16906020019091905050611627565b005b600b5481565b6000809054906101000a900473ffffffffffffffffffffffffffffffffffffffff1673ffffffffffffffffffffffffffffffffffffffff163373ffffffffffffffffffffffffffffffffffffffff1614151561097257600080fd5b60001515601060019054906101000a900460ff16151514151561099457600080fd5b80600f90805190602001906109aa92919061186d565b5050565b600d5481565b601060009054906101000a900460ff1681565b600f8054600181600116156101000203166002900480601f016020809104026020016040519081016040528092919081815260200182805460018160011615610100020316600290048015610a5d5780601f10610a3257610100808354040283529160200191610a5d565b820191906000526020600020905b815481529060010190602001808311610a4057829003601f168201915b505050505081565b610a6f828261177c565b73ffffffffffffffffffffffffffffffffffffffff163373ffffffffffffffffffffffffffffffffffffffff16148015610b0b575060405180807f19457468657265756d205369676e6564204d6573736167653a0a37492041475281526020017f454500000000000000000000000000000000000000000000000000000000000081525060220190506040518091039020600019168260001916145b1515610b1657600080fd5b6001600860003373ffffffffffffffffffffffffffffffffffffffff1673ffffffffffffffffffffffffffffffffffffffff16815260200190815260200160002060006101000a81548160ff0219169083151502179055506001601060016101000a81548160ff0219169083151502179055505050565b600a5481565b6000809054906101000a900473ffffffffffffffffffffffffffffffffffffffff1673ffffffffffffffffffffffffffffffffffffffff163373ffffffffffffffffffffffffffffffffffffffff16141515610bee57600080fd5b60001515601060019054906101000a900460ff161515141515610c1057600080fd5b600160009054906101000a900473ffffffffffffffffffffffffffffffffffffffff1660008173ffffffffffffffffffffffffffffffffffffffff1614151515610c5957600080fd5b600260009054906101000a900473ffffffffffffffffffffffffffffffffffffffff1673ffffffffffffffffffffffffffffffffffffffff16638c8d98a08585856040518463ffffffff167c0100000000000000000000000000000000000000000000000000000000028152600401808461ffff1661ffff1681526020018360ff1660ff1681526020018260ff1660ff1681526020019350505050602060405180830381600087803b1515610d0d57600080fd5b5af11515610d1a57600080fd5b50505060405180519050600c8190555050505050565b6000809054906101000a900473ffffffffffffffffffffffffffffffffffffffff1673ffffffffffffffffffffffffffffffffffffffff163373ffffffffffffffffffffffffffffffffffffffff16141515610d8b57600080fd5b60001515601060019054906101000a900460ff161515141515610dad57600080fd5b80600d8190555050565b6000809054906101000a900473ffffffffffffffffffffffffffffffffffffffff1681565b600360009054906101000a900473ffffffffffffffffffffffffffffffffffffffff1681565b60008060009054906101000a900473ffffffffffffffffffffffffffffffffffffffff1673ffffffffffffffffffffffffffffffffffffffff163373ffffffffffffffffffffffffffffffffffffffff16141515610e5f57600080fd5b60001515601060019054906101000a900460ff161515141515610e8157600080fd5b600954600a54101515610e9357600080fd5b60068054806001018281610ea791906118ed565b9160005260206000209060020201600060408051908101604052808881526020018781525090919091506000820151816000019080519060200190610eed92919061191f565b506020820151816001019080519060200190610f0a92919061191f565b50505050600a600081548092919060010191905055600760008473ffffffffffffffffffffffffffffffffffffffff1673ffffffffffffffffffffffffffffffffffffffff16815260200190815260200160002081905550600360009054906101000a900473ffffffffffffffffffffffffffffffffffffffff1690508073ffffffffffffffffffffffffffffffffffffffff1663f7faf1a730846040518363ffffffff167c0100000000000000000000000000000000000000000000000000000000028152600401808373ffffffffffffffffffffffffffffffffffffffff1673ffffffffffffffffffffffffffffffffffffffff1681526020018273ffffffffffffffffffffffffffffffffffffffff1673ffffffffffffffffffffffffffffffffffffffff16815260200192505050600060405180830381600087803b151561105557600080fd5b5af1151561106257600080fd5b50505050505050565b6000809054906101000a900473ffffffffffffffffffffffffffffffffffffffff1673ffffffffffffffffffffffffffffffffffffffff163373ffffffffffffffffffffffffffffffffffffffff161415156110c657600080fd5b60001515601060019054906101000a900460ff1615151415156110e857600080fd5b80600e8190555050565b60068181548110151561110157fe5b9060005260206000209060020201600091509050806000018054600181600116156101000203166002900480601f0160208091040260200160405190810160405280929190818152602001828054600181600116156101000203166002900480156111ad5780601f10611182576101008083540402835291602001916111ad565b820191906000526020600020905b81548152906001019060200180831161119057829003601f168201915b505050505090806001018054600181600116156101000203166002900480601f01602080910402602001604051908101604052809291908181526020018280546001816001161561010002031660029004801561124b5780601f106112205761010080835404028352916020019161124b565b820191906000526020600020905b81548152906001019060200180831161122e57829003601f168201915b5050505050905082565b600c5481565b6000809054906101000a900473ffffffffffffffffffffffffffffffffffffffff1673ffffffffffffffffffffffffffffffffffffffff163373ffffffffffffffffffffffffffffffffffffffff161415156112b657600080fd5b60001515601060019054906101000a900460ff1615151415156112d857600080fd5b600160009054906101000a900473ffffffffffffffffffffffffffffffffffffffff1660008173ffffffffffffffffffffffffffffffffffffffff161415151561132157600080fd5b600260009054906101000a900473ffffffffffffffffffffffffffffffffffffffff1673ffffffffffffffffffffffffffffffffffffffff16638c8d98a08585856040518463ffffffff167c0100000000000000000000000000000000000000000000000000000000028152600401808461ffff1661ffff1681526020018360ff1660ff1681526020018260ff1660ff1681526020019350505050602060405180830381600087803b15156113d557600080fd5b5af115156113e257600080fd5b50505060405180519050600b8190555050505050565b6004806000018054600181600116156101000203166002900480601f0160208091040260200160405190810160405280929190818152602001828054600181600116156101000203166002900480156114925780601f1061146757610100808354040283529160200191611492565b820191906000526020600020905b81548152906001019060200180831161147557829003601f168201915b505050505090806001018054600181600116156101000203166002900480601f0160208091040260200160405190810160405280929190818152602001828054600181600116156101000203166002900480156115305780601f1061150557610100808354040283529160200191611530565b820191906000526020600020905b81548152906001019060200180831161151357829003601f168201915b5050505050905082565b6000809054906101000a900473ffffffffffffffffffffffffffffffffffffffff1673ffffffffffffffffffffffffffffffffffffffff163373ffffffffffffffffffffffffffffffffffffffff1614151561159557600080fd5b60001515601060019054906101000a900460ff1615151415156115b757600080fd5b6000811115156115c657600080fd5b8060098190555050565b60086020528060005260406000206000915054906101000a900460ff1681565b600e5481565b60095481565b60076020528060005260406000206000915090505481565b601060019054906101000a900460ff1681565b6000809054906101000a900473ffffffffffffffffffffffffffffffffffffffff1673ffffffffffffffffffffffffffffffffffffffff163373ffffffffffffffffffffffffffffffffffffffff1614151561168257600080fd5b600073ffffffffffffffffffffffffffffffffffffffff168173ffffffffffffffffffffffffffffffffffffffff16141515156116be57600080fd5b8073ffffffffffffffffffffffffffffffffffffffff166000809054906101000a900473ffffffffffffffffffffffffffffffffffffffff1673ffffffffffffffffffffffffffffffffffffffff167f8be0079c531659141344cd1fd0a4f28419497f9722a3daafe3b4186f6b6457e060405160405180910390a3806000806101000a81548173ffffffffffffffffffffffffffffffffffffffff021916908373ffffffffffffffffffffffffffffffffffffffff16021790555050565b600080600080604185511415156117965760009350611864565b6020850151925060408501519150606085015160001a9050601b8160ff1610156117c157601b810190505b601b8160ff16141580156117d95750601c8160ff1614155b156117e75760009350611864565b600186828585604051600081526020016040526040518085600019166000191681526020018460ff1660ff1681526020018360001916600019168152602001826000191660001916815260200194505050505060206040516020810390808403906000865af1151561185857600080fd5b50506020604051035193505b50505092915050565b828054600181600116156101000203166002900490600052602060002090601f016020900481019282601f106118ae57805160ff19168380011785556118dc565b828001600101855582156118dc579182015b828111156118db5782518255916020019190600101906118c0565b5b5090506118e9919061199f565b5090565b81548183558181151161191a5760020281600202836000526020600020918201910161191991906119c4565b5b505050565b828054600181600116156101000203166002900490600052602060002090601f016020900481019282601f1061196057805160ff191683800117855561198e565b8280016001018555821561198e579182015b8281111561198d578251825591602001919060010190611972565b5b50905061199b919061199f565b5090565b6119c191905b808211156119bd5760008160009055506001016119a5565b5090565b90565b611a0091905b808211156119fc57600080820160006119e39190611a03565b6001820160006119f39190611a03565b506002016119ca565b5090565b90565b50805460018160011615610100020316600290046000825580601f10611a295750611a48565b601f016020900490600052602060002090810190611a47919061199f565b5b505600a165627a7a723058206a65054850d1f78ddeb887c31f48153458b43b1df0cca644d239ea71c27cb8db0029",
  "source": "pragma solidity ^0.4.21;\n\nimport \"zeppelin-solidity/contracts/ownership/Ownable.sol\";\nimport \"zeppelin-solidity/contracts/ECRecovery.sol\";\n\ncontract DateTimeAPI {\n    /*\n     *  Abstract contract for interfacing with the DateTime contract.\n     *  See: https://github.com/pipermerriam/ethereum-datetime/blob/master/contracts/DateTime.sol\n     */\n    function isLeapYear(uint16 year) public pure returns (bool);\n    function getYear(uint timestamp) public pure returns (uint16);\n    function getMonth(uint timestamp) public pure returns (uint8);\n    function getDay(uint timestamp) public pure returns (uint8);\n    function getHour(uint timestamp) public pure returns (uint8);\n    function getMinute(uint timestamp) public pure returns (uint8);\n    function getSecond(uint timestamp) public pure returns (uint8);\n    function getWeekday(uint timestamp) public pure returns (uint8);\n    function toTimestamp(uint16 year, uint8 month, uint8 day) public pure returns (uint timestamp);\n    function toTimestamp(uint16 year, uint8 month, uint8 day, uint8 hour) public pure returns (uint timestamp);\n    function toTimestamp(uint16 year, uint8 month, uint8 day, uint8 hour, uint8 minute) public pure returns (uint timestamp);\n    function toTimestamp(uint16 year, uint8 month, uint8 day, uint8 hour, uint8 minute, uint8 second) public pure returns (uint timestamp);\n}\n\ncontract FactoryAPI {\n    /*\n     *   Abstract contract to allow SmartLease to emit a NewTenant event in the factory.\n     */\n    function emitNewTenant(address _contract_address, address _tenant) public;\n}\n\ncontract SmartLease is Ownable {\n\n    event NewSmartLease(address indexed landlord);\n    event ApproveSmartLease(address indexed tenant);\n\n    struct Person {\n        string firstName;\n        string lastName;\n    }\n\n    address dateTimeAddr = 0; // main chain address: 0x1a6184CD4C5Bea62B0116de7962EE7315B7bcBce;\n    DateTimeAPI DateTime = DateTimeAPI(dateTimeAddr);\n\n    address public factoryAddr;\n\n    Person public landlord;\n    Person[] public tenants;\n    mapping (address => uint) public tenantAddressToId;\n    mapping (address => bool) public tenantToSigned;\n    uint public maxTenants = 1;\n    uint public numTenants = 0;\n    uint public startDate = 0;\n    uint public endDate = 0;\n    uint public securityDeposit = 0;\n    uint public monthlyRent = 0;\n    string public googlePlaceId = \"\";\n    bool public isActive;\n    bool public isSigned;\n\n    modifier beforeSigning() {\n        require(isSigned == false);\n        _;\n    }\n\n    modifier dateTimeAddressValid(address _dtAddress) {\n        require(_dtAddress != 0);\n        _;\n    }\n\n    function signLease(bytes32 _hash, bytes _sig) public {\n        require(msg.sender == ECRecovery.recover(_hash, _sig) && _hash == keccak256(\"\\x19Ethereum Signed Message:\\n7I AGREE\"));\n        tenantToSigned[msg.sender] = true;\n        isSigned = true;\n    }\n\n    function SmartLease(string _firstName, string _lastName) public {\n        landlord.firstName = _firstName;\n        landlord.lastName = _lastName;\n        factoryAddr = msg.sender;\n    }\n\n    function setMaxTenants(uint _maxTenants) public onlyOwner beforeSigning {\n        require(_maxTenants > 0);\n        maxTenants = _maxTenants;\n    }\n\n    function addTenant(string _firstName, string _lastName, address _tenantAddr) public onlyOwner beforeSigning {\n        require(numTenants < maxTenants);\n        tenants.push(Person(_firstName, _lastName));\n        tenantAddressToId[_tenantAddr] = numTenants++;\n        FactoryAPI factory = FactoryAPI(factoryAddr);\n        factory.emitNewTenant(this, _tenantAddr);\n    }\n\n    function setStartDate(uint16 _year, uint8 _month, uint8 _day) public onlyOwner beforeSigning dateTimeAddressValid(dateTimeAddr) {\n        startDate = DateTime.toTimestamp(_year, _month, _day);\n    }\n\n    function setEndDate(uint16 _year, uint8 _month, uint8 _day) public onlyOwner beforeSigning dateTimeAddressValid(dateTimeAddr) {\n        endDate = DateTime.toTimestamp(_year, _month, _day);\n    }\n\n    function setSecurityDeposit(uint _securityDepositAmount) public onlyOwner beforeSigning {\n        securityDeposit = _securityDepositAmount;\n    }\n    \n    function setRent(uint _rentAmount) public onlyOwner beforeSigning {\n        monthlyRent = _rentAmount;\n    }\n\n    function setGooglePlaceId(string _googlePlaceId) public onlyOwner beforeSigning {\n        googlePlaceId = _googlePlaceId;\n    }\n}",
  "sourcePath": "/Users/ABMBP/Holberton/Blockchain/SmartLeaseMain/contracts/smartlease.sol",
  "compiler": {
    "name": "solc",
    "version": "0.4.21+commit.dfe3193c.Emscripten.clang"
  },
  "schemaVersion": "2.0.0",
  "updatedAt": "2018-04-19T01:50:16.324Z"
}