{
  "contractName": "SmartLeaseFactory",
  "abi": [
    {
      "constant": true,
      "inputs": [],
      "name": "owner",
      "outputs": [
        {
          "name": "",
          "type": "address"
        }
      ],
      "payable": false,
      "stateMutability": "view",
      "type": "function"
    },
    {
      "constant": false,
      "inputs": [
        {
          "name": "newOwner",
          "type": "address"
        }
      ],
      "name": "transferOwnership",
      "outputs": [],
      "payable": false,
      "stateMutability": "nonpayable",
      "type": "function"
    },
    {
      "constant": true,
      "inputs": [],
      "name": "test",
      "outputs": [
        {
          "name": "",
          "type": "string"
        }
      ],
      "payable": false,
      "stateMutability": "view",
      "type": "function"
    },
    {
      "anonymous": false,
      "inputs": [
        {
          "indexed": false,
          "name": "contract_address",
          "type": "address"
        },
        {
          "indexed": true,
          "name": "landlord",
          "type": "address"
        }
      ],
      "name": "NewLease",
      "type": "event"
    },
    {
      "anonymous": false,
      "inputs": [
        {
          "indexed": false,
          "name": "contract_address",
          "type": "address"
        },
        {
          "indexed": true,
          "name": "tenant",
          "type": "address"
        }
      ],
      "name": "NewTenant",
      "type": "event"
    },
    {
      "anonymous": false,
      "inputs": [
        {
          "indexed": true,
          "name": "previousOwner",
          "type": "address"
        },
        {
          "indexed": true,
          "name": "newOwner",
          "type": "address"
        }
      ],
      "name": "OwnershipTransferred",
      "type": "event"
    },
    {
      "constant": false,
      "inputs": [
        {
          "name": "_first",
          "type": "string"
        },
        {
          "name": "_last",
          "type": "string"
        }
      ],
      "name": "createContract",
      "outputs": [
        {
          "name": "leaseAddress",
          "type": "address"
        }
      ],
      "payable": false,
      "stateMutability": "nonpayable",
      "type": "function"
    },
    {
      "constant": false,
      "inputs": [
        {
          "name": "_contract_address",
          "type": "address"
        },
        {
          "name": "_tenant",
          "type": "address"
        }
      ],
      "name": "emitNewTenant",
      "outputs": [],
      "payable": false,
      "stateMutability": "nonpayable",
      "type": "function"
    }
  ],
  "bytecode": "0x60606040526040805190810160405280600981526020017f436f6e6e656374656400000000000000000000000000000000000000000000008152506001908051906020019061004f929190610095565b50336000806101000a81548173ffffffffffffffffffffffffffffffffffffffff021916908373ffffffffffffffffffffffffffffffffffffffff16021790555061013a565b828054600181600116156101000203166002900490600052602060002090601f016020900481019282601f106100d657805160ff1916838001178555610104565b82800160010185558215610104579182015b828111156101035782518255916020019190600101906100e8565b5b5090506101119190610115565b5090565b61013791905b8082111561013357600081600090555060010161011b565b5090565b90565b612339806101496000396000f30060606040526004361061006d576000357c0100000000000000000000000000000000000000000000000000000000900463ffffffff168063631a4231146100725780638da5cb5b146100f4578063f2fde38b14610149578063f7faf1a714610182578063f8a8fd6d146101da575b600080fd5b341561007d57600080fd5b6100b2600480803590602001908201803590602001919091929080359060200190820180359060200191909192905050610268565b604051808273ffffffffffffffffffffffffffffffffffffffff1673ffffffffffffffffffffffffffffffffffffffff16815260200191505060405180910390f35b34156100ff57600080fd5b610107610402565b604051808273ffffffffffffffffffffffffffffffffffffffff1673ffffffffffffffffffffffffffffffffffffffff16815260200191505060405180910390f35b341561015457600080fd5b610180600480803573ffffffffffffffffffffffffffffffffffffffff16906020019091905050610427565b005b341561018d57600080fd5b6101d8600480803573ffffffffffffffffffffffffffffffffffffffff1690602001909190803573ffffffffffffffffffffffffffffffffffffffff1690602001909190505061057c565b005b34156101e557600080fd5b6101ed6105fa565b6040518080602001828103825283818151815260200191508051906020019080838360005b8381101561022d578082015181840152602081019050610212565b50505050905090810190601f16801561025a5780820380516001836020036101000a031916815260200191505b509250505060405180910390f35b60008085858585610277610698565b80806020018060200183810383528787828181526020019250808284378201915050838103825285858281815260200192508082843782019150509650505050505050604051809103906000f08015156102d057600080fd5b90508073ffffffffffffffffffffffffffffffffffffffff1663f2fde38b326040518263ffffffff167c0100000000000000000000000000000000000000000000000000000000028152600401808273ffffffffffffffffffffffffffffffffffffffff1673ffffffffffffffffffffffffffffffffffffffff168152602001915050600060405180830381600087803b151561036c57600080fd5b5af1151561037957600080fd5b5050503273ffffffffffffffffffffffffffffffffffffffff167f53f2902f2b607b4aac0469383128845ef3d34d7adf4bcc5efa53176d4f5bde1f82604051808273ffffffffffffffffffffffffffffffffffffffff1673ffffffffffffffffffffffffffffffffffffffff16815260200191505060405180910390a280915050949350505050565b6000809054906101000a900473ffffffffffffffffffffffffffffffffffffffff1681565b6000809054906101000a900473ffffffffffffffffffffffffffffffffffffffff1673ffffffffffffffffffffffffffffffffffffffff163373ffffffffffffffffffffffffffffffffffffffff1614151561048257600080fd5b600073ffffffffffffffffffffffffffffffffffffffff168173ffffffffffffffffffffffffffffffffffffffff16141515156104be57600080fd5b8073ffffffffffffffffffffffffffffffffffffffff166000809054906101000a900473ffffffffffffffffffffffffffffffffffffffff1673ffffffffffffffffffffffffffffffffffffffff167f8be0079c531659141344cd1fd0a4f28419497f9722a3daafe3b4186f6b6457e060405160405180910390a3806000806101000a81548173ffffffffffffffffffffffffffffffffffffffff021916908373ffffffffffffffffffffffffffffffffffffffff16021790555050565b8073ffffffffffffffffffffffffffffffffffffffff167f7b9bd42959adfcedbb2ab6c7963f324df889c3c783c70388b9bfbce380f7eb1083604051808273ffffffffffffffffffffffffffffffffffffffff1673ffffffffffffffffffffffffffffffffffffffff16815260200191505060405180910390a25050565b60018054600181600116156101000203166002900480601f0160208091040260200160405190810160405280929190818152602001828054600181600116156101000203166002900480156106905780601f1061066557610100808354040283529160200191610690565b820191906000526020600020905b81548152906001019060200180831161067357829003601f168201915b505050505081565b604051611c65806106a983390190560060606040526000600160006101000a81548173ffffffffffffffffffffffffffffffffffffffff021916908373ffffffffffffffffffffffffffffffffffffffff160217905550600160009054906101000a900473ffffffffffffffffffffffffffffffffffffffff16600260006101000a81548173ffffffffffffffffffffffffffffffffffffffff021916908373ffffffffffffffffffffffffffffffffffffffff16021790555060016009556000600a556000600b556000600c556000600d556000600e556020604051908101604052806000815250600f9080519060200190620000ef929190620001e4565b503415620000fc57600080fd5b60405162001c6538038062001c6583398101604052808051820191906020018051820191905050336000806101000a81548173ffffffffffffffffffffffffffffffffffffffff021916908373ffffffffffffffffffffffffffffffffffffffff16021790555081600460000190805190602001906200017e929190620001e4565b5080600460010190805190602001906200019a929190620001e4565b5033600360006101000a81548173ffffffffffffffffffffffffffffffffffffffff021916908373ffffffffffffffffffffffffffffffffffffffff160217905550505062000293565b828054600181600116156101000203166002900490600052602060002090601f016020900481019282601f106200022757805160ff191683800117855562000258565b8280016001018555821562000258579182015b82811115620002575782518255916020019190600101906200023a565b5b5090506200026791906200026b565b5090565b6200029091905b808211156200028c57600081600090555060010162000272565b5090565b90565b6119c280620002a36000396000f300606060405260043610610133576000357c0100000000000000000000000000000000000000000000000000000000900463ffffffff1680630b97bc8614610138578063220e5ab31461016157806322f3e2d41461018a57806334c92a2c146101b757806375136faa146102215780637ec37f2c1461024a57806386aefcea146102895780638da5cb5b146102ac578063963671be146103015780639c936c3414610356578063bd2ba85d14610415578063bd99e81c1461051d578063c24a0f8b1461057a578063c36ff3dd146105a3578063c601e54a146105e2578063dc1997ea14610670578063dc328aa81461076a578063e1746af91461078d578063e4cbecdf146107de578063e4f0de1e14610807578063e66355a514610830578063e66a6b221461087d578063f2fde38b146108aa575b600080fd5b341561014357600080fd5b61014b6108e3565b6040518082815260200191505060405180910390f35b341561016c57600080fd5b6101746108e9565b6040518082815260200191505060405180910390f35b341561019557600080fd5b61019d6108ef565b604051808215151515815260200191505060405180910390f35b34156101c257600080fd5b61021f60048080356000191690602001909190803590602001908201803590602001908080601f01602080910402602001604051908101604052809392919081815260200183838082843782019150505050505091905050610902565b005b341561022c57600080fd5b610234610a2a565b6040518082815260200191505060405180910390f35b341561025557600080fd5b610287600480803561ffff1690602001909190803560ff1690602001909190803560ff16906020019091905050610a30565b005b341561029457600080fd5b6102aa6004808035906020019091905050610bcd565b005b34156102b757600080fd5b6102bf610c54565b604051808273ffffffffffffffffffffffffffffffffffffffff1673ffffffffffffffffffffffffffffffffffffffff16815260200191505060405180910390f35b341561030c57600080fd5b610314610c79565b604051808273ffffffffffffffffffffffffffffffffffffffff1673ffffffffffffffffffffffffffffffffffffffff16815260200191505060405180910390f35b341561036157600080fd5b610413600480803590602001908201803590602001908080601f0160208091040260200160405190810160405280939291908181526020018383808284378201915050505050509190803590602001908201803590602001908080601f0160208091040260200160405190810160405280939291908181526020018383808284378201915050505050509190803573ffffffffffffffffffffffffffffffffffffffff16906020019091905050610c9f565b005b341561042057600080fd5b6104366004808035906020019091905050610f08565b604051808060200180602001838103835285818151815260200191508051906020019080838360005b8381101561047a57808201518184015260208101905061045f565b50505050905090810190601f1680156104a75780820380516001836020036101000a031916815260200191505b50838103825284818151815260200191508051906020019080838360005b838110156104e05780820151818401526020810190506104c5565b50505050905090810190601f16801561050d5780820380516001836020036101000a031916815260200191505b5094505050505060405180910390f35b341561052857600080fd5b610578600480803590602001908201803590602001908080601f0160208091040260200160405190810160405280939291908181526020018383808284378201915050505050509190505061106b565b005b341561058557600080fd5b61058d611102565b6040518082815260200191505060405180910390f35b34156105ae57600080fd5b6105e0600480803561ffff1690602001909190803560ff1690602001909190803560ff16906020019091905050611108565b005b34156105ed57600080fd5b6105f56112a5565b6040518080602001828103825283818151815260200191508051906020019080838360005b8381101561063557808201518184015260208101905061061a565b50505050905090810190601f1680156106625780820380516001836020036101000a031916815260200191505b509250505060405180910390f35b341561067b57600080fd5b610683611343565b604051808060200180602001838103835285818151815260200191508051906020019080838360005b838110156106c75780820151818401526020810190506106ac565b50505050905090810190601f1680156106f45780820380516001836020036101000a031916815260200191505b50838103825284818151815260200191508051906020019080838360005b8381101561072d578082015181840152602081019050610712565b50505050905090810190601f16801561075a5780820380516001836020036101000a031916815260200191505b5094505050505060405180910390f35b341561077557600080fd5b61078b6004808035906020019091905050611485565b005b341561079857600080fd5b6107c4600480803573ffffffffffffffffffffffffffffffffffffffff1690602001909190505061151b565b604051808215151515815260200191505060405180910390f35b34156107e957600080fd5b6107f161153b565b6040518082815260200191505060405180910390f35b341561081257600080fd5b61081a611541565b6040518082815260200191505060405180910390f35b341561083b57600080fd5b610867600480803573ffffffffffffffffffffffffffffffffffffffff16906020019091905050611547565b6040518082815260200191505060405180910390f35b341561088857600080fd5b61089061155f565b604051808215151515815260200191505060405180910390f35b34156108b557600080fd5b6108e1600480803573ffffffffffffffffffffffffffffffffffffffff16906020019091905050611572565b005b600b5481565b600d5481565b601060009054906101000a900460ff1681565b61090c82826116c7565b73ffffffffffffffffffffffffffffffffffffffff163373ffffffffffffffffffffffffffffffffffffffff161480156109a8575060405180807f19457468657265756d205369676e6564204d6573736167653a0a37492041475281526020017f454500000000000000000000000000000000000000000000000000000000000081525060220190506040518091039020600019168260001916145b15156109b357600080fd5b6001600860003373ffffffffffffffffffffffffffffffffffffffff1673ffffffffffffffffffffffffffffffffffffffff16815260200190815260200160002060006101000a81548160ff0219169083151502179055506001601060016101000a81548160ff0219169083151502179055505050565b600a5481565b6000809054906101000a900473ffffffffffffffffffffffffffffffffffffffff1673ffffffffffffffffffffffffffffffffffffffff163373ffffffffffffffffffffffffffffffffffffffff16141515610a8b57600080fd5b60001515601060019054906101000a900460ff161515141515610aad57600080fd5b600160009054906101000a900473ffffffffffffffffffffffffffffffffffffffff1660008173ffffffffffffffffffffffffffffffffffffffff1614151515610af657600080fd5b600260009054906101000a900473ffffffffffffffffffffffffffffffffffffffff1673ffffffffffffffffffffffffffffffffffffffff16638c8d98a08585856040518463ffffffff167c0100000000000000000000000000000000000000000000000000000000028152600401808461ffff1661ffff1681526020018360ff1660ff1681526020018260ff1660ff1681526020019350505050602060405180830381600087803b1515610baa57600080fd5b5af11515610bb757600080fd5b50505060405180519050600c8190555050505050565b6000809054906101000a900473ffffffffffffffffffffffffffffffffffffffff1673ffffffffffffffffffffffffffffffffffffffff163373ffffffffffffffffffffffffffffffffffffffff16141515610c2857600080fd5b60001515601060019054906101000a900460ff161515141515610c4a57600080fd5b80600d8190555050565b6000809054906101000a900473ffffffffffffffffffffffffffffffffffffffff1681565b600360009054906101000a900473ffffffffffffffffffffffffffffffffffffffff1681565b60008060009054906101000a900473ffffffffffffffffffffffffffffffffffffffff1673ffffffffffffffffffffffffffffffffffffffff163373ffffffffffffffffffffffffffffffffffffffff16141515610cfc57600080fd5b60001515601060019054906101000a900460ff161515141515610d1e57600080fd5b600954600a54101515610d3057600080fd5b60068054806001018281610d4491906117b8565b9160005260206000209060020201600060408051908101604052808881526020018781525090919091506000820151816000019080519060200190610d8a9291906117ea565b506020820151816001019080519060200190610da79291906117ea565b50505050600a600081548092919060010191905055600760008473ffffffffffffffffffffffffffffffffffffffff1673ffffffffffffffffffffffffffffffffffffffff16815260200190815260200160002081905550600360009054906101000a900473ffffffffffffffffffffffffffffffffffffffff1690508073ffffffffffffffffffffffffffffffffffffffff1663f7faf1a730846040518363ffffffff167c0100000000000000000000000000000000000000000000000000000000028152600401808373ffffffffffffffffffffffffffffffffffffffff1673ffffffffffffffffffffffffffffffffffffffff1681526020018273ffffffffffffffffffffffffffffffffffffffff1673ffffffffffffffffffffffffffffffffffffffff16815260200192505050600060405180830381600087803b1515610ef257600080fd5b5af11515610eff57600080fd5b50505050505050565b600681815481101515610f1757fe5b9060005260206000209060020201600091509050806000018054600181600116156101000203166002900480601f016020809104026020016040519081016040528092919081815260200182805460018160011615610100020316600290048015610fc35780601f10610f9857610100808354040283529160200191610fc3565b820191906000526020600020905b815481529060010190602001808311610fa657829003601f168201915b505050505090806001018054600181600116156101000203166002900480601f0160208091040260200160405190810160405280929190818152602001828054600181600116156101000203166002900480156110615780601f1061103657610100808354040283529160200191611061565b820191906000526020600020905b81548152906001019060200180831161104457829003601f168201915b5050505050905082565b6000809054906101000a900473ffffffffffffffffffffffffffffffffffffffff1673ffffffffffffffffffffffffffffffffffffffff163373ffffffffffffffffffffffffffffffffffffffff161415156110c657600080fd5b60001515601060019054906101000a900460ff1615151415156110e857600080fd5b80600f90805190602001906110fe92919061186a565b5050565b600c5481565b6000809054906101000a900473ffffffffffffffffffffffffffffffffffffffff1673ffffffffffffffffffffffffffffffffffffffff163373ffffffffffffffffffffffffffffffffffffffff1614151561116357600080fd5b60001515601060019054906101000a900460ff16151514151561118557600080fd5b600160009054906101000a900473ffffffffffffffffffffffffffffffffffffffff1660008173ffffffffffffffffffffffffffffffffffffffff16141515156111ce57600080fd5b600260009054906101000a900473ffffffffffffffffffffffffffffffffffffffff1673ffffffffffffffffffffffffffffffffffffffff16638c8d98a08585856040518463ffffffff167c0100000000000000000000000000000000000000000000000000000000028152600401808461ffff1661ffff1681526020018360ff1660ff1681526020018260ff1660ff1681526020019350505050602060405180830381600087803b151561128257600080fd5b5af1151561128f57600080fd5b50505060405180519050600b8190555050505050565b600f8054600181600116156101000203166002900480601f01602080910402602001604051908101604052809291908181526020018280546001816001161561010002031660029004801561133b5780601f106113105761010080835404028352916020019161133b565b820191906000526020600020905b81548152906001019060200180831161131e57829003601f168201915b505050505081565b6004806000018054600181600116156101000203166002900480601f0160208091040260200160405190810160405280929190818152602001828054600181600116156101000203166002900480156113dd5780601f106113b2576101008083540402835291602001916113dd565b820191906000526020600020905b8154815290600101906020018083116113c057829003601f168201915b505050505090806001018054600181600116156101000203166002900480601f01602080910402602001604051908101604052809291908181526020018280546001816001161561010002031660029004801561147b5780601f106114505761010080835404028352916020019161147b565b820191906000526020600020905b81548152906001019060200180831161145e57829003601f168201915b5050505050905082565b6000809054906101000a900473ffffffffffffffffffffffffffffffffffffffff1673ffffffffffffffffffffffffffffffffffffffff163373ffffffffffffffffffffffffffffffffffffffff161415156114e057600080fd5b60001515601060019054906101000a900460ff16151514151561150257600080fd5b60008111151561151157600080fd5b8060098190555050565b60086020528060005260406000206000915054906101000a900460ff1681565b600e5481565b60095481565b60076020528060005260406000206000915090505481565b601060019054906101000a900460ff1681565b6000809054906101000a900473ffffffffffffffffffffffffffffffffffffffff1673ffffffffffffffffffffffffffffffffffffffff163373ffffffffffffffffffffffffffffffffffffffff161415156115cd57600080fd5b600073ffffffffffffffffffffffffffffffffffffffff168173ffffffffffffffffffffffffffffffffffffffff161415151561160957600080fd5b8073ffffffffffffffffffffffffffffffffffffffff166000809054906101000a900473ffffffffffffffffffffffffffffffffffffffff1673ffffffffffffffffffffffffffffffffffffffff167f8be0079c531659141344cd1fd0a4f28419497f9722a3daafe3b4186f6b6457e060405160405180910390a3806000806101000a81548173ffffffffffffffffffffffffffffffffffffffff021916908373ffffffffffffffffffffffffffffffffffffffff16021790555050565b600080600080604185511415156116e157600093506117af565b6020850151925060408501519150606085015160001a9050601b8160ff16101561170c57601b810190505b601b8160ff16141580156117245750601c8160ff1614155b1561173257600093506117af565b600186828585604051600081526020016040526040518085600019166000191681526020018460ff1660ff1681526020018360001916600019168152602001826000191660001916815260200194505050505060206040516020810390808403906000865af115156117a357600080fd5b50506020604051035193505b50505092915050565b8154818355818115116117e5576002028160020283600052602060002091820191016117e491906118ea565b5b505050565b828054600181600116156101000203166002900490600052602060002090601f016020900481019282601f1061182b57805160ff1916838001178555611859565b82800160010185558215611859579182015b8281111561185857825182559160200191906001019061183d565b5b5090506118669190611929565b5090565b828054600181600116156101000203166002900490600052602060002090601f016020900481019282601f106118ab57805160ff19168380011785556118d9565b828001600101855582156118d9579182015b828111156118d85782518255916020019190600101906118bd565b5b5090506118e69190611929565b5090565b61192691905b808211156119225760008082016000611909919061194e565b600182016000611919919061194e565b506002016118f0565b5090565b90565b61194b91905b8082111561194757600081600090555060010161192f565b5090565b90565b50805460018160011615610100020316600290046000825580601f106119745750611993565b601f0160209004906000526020600020908101906119929190611929565b5b505600a165627a7a72305820072d53a45af55f7f5f28c8b0305647ee9bf6aab97585ae3cc76e40e601d7b5220029a165627a7a723058200c83bcf519b0f8dcf0901be7bf076b8129a6c5116c2f6d43078402c5634bd0500029",
  "source": "pragma solidity ^0.4.21;\n\nimport \"zeppelin-solidity/contracts/ownership/Ownable.sol\";\nimport \"./smartlease.sol\";\n\ncontract SmartLeaseFactory is Ownable {\n\n    event NewLease(address contract_address, address indexed landlord);\n    event NewTenant(address contract_address, address indexed tenant);\n\n    string public test = \"Connected\";\n\n    function createContract(string _first, string _last) external returns (SmartLease leaseAddress) {\n        SmartLease newContract = new SmartLease(_first, _last);\n        newContract.transferOwnership(tx.origin);\n        emit NewLease(newContract, tx.origin);\n        return newContract;\n    }\n\n\tfunction emitNewTenant(address _contract_address, address _tenant) public {\n\t\temit NewTenant(_contract_address, _tenant);\n\t}\n}",
  "sourcePath": "/Users/ABMBP/Holberton/Blockchain/SmartLeaseMain/contracts/smartleasefactory.sol",
  "compiler": {
    "name": "solc",
    "version": "0.4.21+commit.dfe3193c.Emscripten.clang"
  },
  "schemaVersion": "2.0.0",
  "updatedAt": "2018-04-19T01:46:26.639Z"
}