{
  "contractName": "SmartLeaseFactory",
  "abi": [
    {
      "constant": true,
      "inputs": [],
      "name": "owner",
      "outputs": [
        {
          "name": "",
          "type": "address"
        }
      ],
      "payable": false,
      "stateMutability": "view",
      "type": "function"
    },
    {
      "constant": false,
      "inputs": [
        {
          "name": "newOwner",
          "type": "address"
        }
      ],
      "name": "transferOwnership",
      "outputs": [],
      "payable": false,
      "stateMutability": "nonpayable",
      "type": "function"
    },
    {
      "constant": true,
      "inputs": [],
      "name": "test",
      "outputs": [
        {
          "name": "",
          "type": "string"
        }
      ],
      "payable": false,
      "stateMutability": "view",
      "type": "function"
    },
    {
      "anonymous": false,
      "inputs": [
        {
          "indexed": false,
          "name": "contract_address",
          "type": "address"
        },
        {
          "indexed": true,
          "name": "landlord",
          "type": "address"
        }
      ],
      "name": "NewLease",
      "type": "event"
    },
    {
      "anonymous": false,
      "inputs": [
        {
          "indexed": false,
          "name": "contract_address",
          "type": "address"
        },
        {
          "indexed": true,
          "name": "tenant",
          "type": "address"
        }
      ],
      "name": "NewTenant",
      "type": "event"
    },
    {
      "anonymous": false,
      "inputs": [
        {
          "indexed": true,
          "name": "contract_address",
          "type": "address"
        },
        {
          "indexed": false,
          "name": "_recipient",
          "type": "address"
        }
      ],
      "name": "DestroyLease",
      "type": "event"
    },
    {
      "anonymous": false,
      "inputs": [
        {
          "indexed": true,
          "name": "previousOwner",
          "type": "address"
        },
        {
          "indexed": true,
          "name": "newOwner",
          "type": "address"
        }
      ],
      "name": "OwnershipTransferred",
      "type": "event"
    },
    {
      "constant": false,
      "inputs": [
        {
          "name": "_landlordFirst",
          "type": "string"
        },
        {
          "name": "_landlordLast",
          "type": "string"
        },
        {
          "name": "_googlePlaceId",
          "type": "string"
        },
        {
          "name": "_maxTenants",
          "type": "uint256"
        },
        {
          "name": "_startDate",
          "type": "uint256"
        },
        {
          "name": "_endDate",
          "type": "uint256"
        },
        {
          "name": "_securityDeposit",
          "type": "uint256"
        },
        {
          "name": "_rent",
          "type": "uint256"
        }
      ],
      "name": "createContract",
      "outputs": [
        {
          "name": "leaseAddress",
          "type": "address"
        }
      ],
      "payable": false,
      "stateMutability": "nonpayable",
      "type": "function"
    },
    {
      "constant": false,
      "inputs": [
        {
          "name": "_lease_address",
          "type": "address"
        },
        {
          "name": "_tenant_address",
          "type": "address"
        }
      ],
      "name": "emitNewTenant",
      "outputs": [],
      "payable": false,
      "stateMutability": "nonpayable",
      "type": "function"
    },
    {
      "constant": false,
      "inputs": [
        {
          "name": "_lease_address",
          "type": "address"
        },
        {
          "name": "_recipient",
          "type": "address"
        }
      ],
      "name": "emitDestroyLease",
      "outputs": [],
      "payable": false,
      "stateMutability": "nonpayable",
      "type": "function"
    }
  ],
  "bytecode": "0x60606040526040805190810160405280600981526020017f436f6e6e656374656400000000000000000000000000000000000000000000008152506001908051906020019061004f929190610095565b50336000806101000a81548173ffffffffffffffffffffffffffffffffffffffff021916908373ffffffffffffffffffffffffffffffffffffffff16021790555061013a565b828054600181600116156101000203166002900490600052602060002090601f016020900481019282601f106100d657805160ff1916838001178555610104565b82800160010185558215610104579182015b828111156101035782518255916020019190600101906100e8565b5b5090506101119190610115565b5090565b61013791905b8082111561013357600081600090555060010161011b565b5090565b90565b612a53806101496000396000f300606060405260043610610078576000357c0100000000000000000000000000000000000000000000000000000000900463ffffffff1680638332da9a1461007d5780638da5cb5b14610140578063f2fde38b14610195578063f7faf1a7146101ce578063f8a8fd6d14610226578063fc28ede0146102b4575b600080fd5b341561008857600080fd5b6100fe600480803590602001908201803590602001919091929080359060200190820180359060200191909192908035906020019082018035906020019190919290803590602001909190803590602001909190803590602001909190803590602001909190803590602001909190505061030c565b604051808273ffffffffffffffffffffffffffffffffffffffff1673ffffffffffffffffffffffffffffffffffffffff16815260200191505060405180910390f35b341561014b57600080fd5b6101536104f7565b604051808273ffffffffffffffffffffffffffffffffffffffff1673ffffffffffffffffffffffffffffffffffffffff16815260200191505060405180910390f35b34156101a057600080fd5b6101cc600480803573ffffffffffffffffffffffffffffffffffffffff1690602001909190505061051c565b005b34156101d957600080fd5b610224600480803573ffffffffffffffffffffffffffffffffffffffff1690602001909190803573ffffffffffffffffffffffffffffffffffffffff16906020019091905050610671565b005b341561023157600080fd5b6102396107e4565b6040518080602001828103825283818151815260200191508051906020019080838360005b8381101561027957808201518184015260208101905061025e565b50505050905090810190601f1680156102a65780820380516001836020036101000a031916815260200191505b509250505060405180910390f35b34156102bf57600080fd5b61030a600480803573ffffffffffffffffffffffffffffffffffffffff1690602001909190803573ffffffffffffffffffffffffffffffffffffffff16906020019091905050610882565b005b6000808c8c8c8c8c8c8c8c8c8c8c6103226109f5565b8080602001806020018060200189815260200188815260200187815260200186815260200185815260200184810384528f8f82818152602001925080828437820191505084810383528d8d82818152602001925080828437820191505084810382528b8b8281815260200192508082843782019150509e505050505050505050505050505050604051809103906000f08015156103be57600080fd5b90508073ffffffffffffffffffffffffffffffffffffffff1663f2fde38b326040518263ffffffff167c0100000000000000000000000000000000000000000000000000000000028152600401808273ffffffffffffffffffffffffffffffffffffffff1673ffffffffffffffffffffffffffffffffffffffff168152602001915050600060405180830381600087803b151561045a57600080fd5b5af1151561046757600080fd5b5050503273ffffffffffffffffffffffffffffffffffffffff167f53f2902f2b607b4aac0469383128845ef3d34d7adf4bcc5efa53176d4f5bde1f82604051808273ffffffffffffffffffffffffffffffffffffffff1673ffffffffffffffffffffffffffffffffffffffff16815260200191505060405180910390a2809150509b9a5050505050505050505050565b6000809054906101000a900473ffffffffffffffffffffffffffffffffffffffff1681565b6000809054906101000a900473ffffffffffffffffffffffffffffffffffffffff1673ffffffffffffffffffffffffffffffffffffffff163373ffffffffffffffffffffffffffffffffffffffff1614151561057757600080fd5b600073ffffffffffffffffffffffffffffffffffffffff168173ffffffffffffffffffffffffffffffffffffffff16141515156105b357600080fd5b8073ffffffffffffffffffffffffffffffffffffffff166000809054906101000a900473ffffffffffffffffffffffffffffffffffffffff1673ffffffffffffffffffffffffffffffffffffffff167f8be0079c531659141344cd1fd0a4f28419497f9722a3daafe3b4186f6b6457e060405160405180910390a3806000806101000a81548173ffffffffffffffffffffffffffffffffffffffff021916908373ffffffffffffffffffffffffffffffffffffffff16021790555050565b818073ffffffffffffffffffffffffffffffffffffffff163373ffffffffffffffffffffffffffffffffffffffff161415156106ac57600080fd5b60003390508073ffffffffffffffffffffffffffffffffffffffff16638da5cb5b6040518163ffffffff167c0100000000000000000000000000000000000000000000000000000000028152600401602060405180830381600087803b151561071457600080fd5b5af1151561072157600080fd5b5050506040518051905073ffffffffffffffffffffffffffffffffffffffff163273ffffffffffffffffffffffffffffffffffffffff1614151561076457600080fd5b8273ffffffffffffffffffffffffffffffffffffffff167f7b9bd42959adfcedbb2ab6c7963f324df889c3c783c70388b9bfbce380f7eb1085604051808273ffffffffffffffffffffffffffffffffffffffff1673ffffffffffffffffffffffffffffffffffffffff16815260200191505060405180910390a250505050565b60018054600181600116156101000203166002900480601f01602080910402602001604051908101604052809291908181526020018280546001816001161561010002031660029004801561087a5780601f1061084f5761010080835404028352916020019161087a565b820191906000526020600020905b81548152906001019060200180831161085d57829003601f168201915b505050505081565b818073ffffffffffffffffffffffffffffffffffffffff163373ffffffffffffffffffffffffffffffffffffffff161415156108bd57600080fd5b60003390508073ffffffffffffffffffffffffffffffffffffffff16638da5cb5b6040518163ffffffff167c0100000000000000000000000000000000000000000000000000000000028152600401602060405180830381600087803b151561092557600080fd5b5af1151561093257600080fd5b5050506040518051905073ffffffffffffffffffffffffffffffffffffffff163273ffffffffffffffffffffffffffffffffffffffff1614151561097557600080fd5b8373ffffffffffffffffffffffffffffffffffffffff167faaaa24b22ee8fe40f69d1fc970b75501c08ebd2bbac742175a9916750adfa8e084604051808273ffffffffffffffffffffffffffffffffffffffff1673ffffffffffffffffffffffffffffffffffffffff16815260200191505060405180910390a250505050565b60405161202280610a0683390190560060606040526040805190810160405280600981526020017f436f6e6e65637465640000000000000000000000000000000000000000000000815250600190805190602001906200005192919062000227565b50600160085560006009556000600a556000600b556000600c556000600d556020604051908101604052806000815250600e90805190602001906200009892919062000227565b503415620000a557600080fd5b604051620020223803806200202283398101604052808051820191906020018051820191906020018051820191906020018051906020019091908051906020019091908051906020019091908051906020019091908051906020019091905050336000806101000a81548173ffffffffffffffffffffffffffffffffffffffff021916908373ffffffffffffffffffffffffffffffffffffffff1602179055506000851115156200015557600080fd5b83831115156200016457600080fd5b87600360000190805190602001906200017f92919062000227565b5086600360010190805190602001906200019b92919062000227565b5085600e9080519060200190620001b492919062000227565b508460088190555083600a8190555082600b8190555081600c8190555080600d8190555033600260006101000a81548173ffffffffffffffffffffffffffffffffffffffff021916908373ffffffffffffffffffffffffffffffffffffffff1602179055505050505050505050620002d6565b828054600181600116156101000203166002900490600052602060002090601f016020900481019282601f106200026a57805160ff19168380011785556200029b565b828001600101855582156200029b579182015b828111156200029a5782518255916020019190600101906200027d565b5b509050620002aa9190620002ae565b5090565b620002d391905b80821115620002cf576000816000905550600101620002b5565b5090565b90565b611d3c80620002e66000396000f30060606040526004361061016a576000357c0100000000000000000000000000000000000000000000000000000000900463ffffffff1680630b97bc861461016f5780630ff9c39114610198578063220e5ab3146101f557806322f3e2d41461021e578063295b46311461024b57806334c92a2c146102d95780633784f0001461034357806342c63dae1461036657806375136faa1461037057806382d95df51461039957806383197ef0146103bc57806386aefcea146103d15780638da5cb5b146103f4578063963671be146104495780639c936c341461049e578063b12a68521461055d578063bd2ba85d14610580578063c24a0f8b14610688578063dc1997ea146106b1578063dc328aa8146107ab578063e1746af9146107ce578063e4cbecdf1461081f578063e4f0de1e14610848578063e66355a514610871578063e66a6b22146108be578063f2fde38b146108eb578063f5074f4114610924578063f8a8fd6d1461095d575b600080fd5b341561017a57600080fd5b6101826109eb565b6040518082815260200191505060405180910390f35b34156101a357600080fd5b6101f3600480803590602001908201803590602001908080601f016020809104026020016040519081016040528093929190818152602001838380828437820191505050505050919050506109f1565b005b341561020057600080fd5b610208610a88565b6040518082815260200191505060405180910390f35b341561022957600080fd5b610231610a8e565b604051808215151515815260200191505060405180910390f35b341561025657600080fd5b61025e610aa1565b6040518080602001828103825283818151815260200191508051906020019080838360005b8381101561029e578082015181840152602081019050610283565b50505050905090810190601f1680156102cb5780820380516001836020036101000a031916815260200191505b509250505060405180910390f35b34156102e457600080fd5b61034160048080356000191690602001909190803590602001908201803590602001908080601f01602080910402602001604051908101604052809392919081815260200183838082843782019150505050505091905050610b3f565b005b341561034e57600080fd5b6103646004808035906020019091905050610caa565b005b61036e610d31565b005b341561037b57600080fd5b610383610d33565b6040518082815260200191505060405180910390f35b34156103a457600080fd5b6103ba6004808035906020019091905050610d39565b005b34156103c757600080fd5b6103cf610dc0565b005b34156103dc57600080fd5b6103f26004808035906020019091905050610f7b565b005b34156103ff57600080fd5b610407611002565b604051808273ffffffffffffffffffffffffffffffffffffffff1673ffffffffffffffffffffffffffffffffffffffff16815260200191505060405180910390f35b341561045457600080fd5b61045c611027565b604051808273ffffffffffffffffffffffffffffffffffffffff1673ffffffffffffffffffffffffffffffffffffffff16815260200191505060405180910390f35b34156104a957600080fd5b61055b600480803590602001908201803590602001908080601f0160208091040260200160405190810160405280939291908181526020018383808284378201915050505050509190803590602001908201803590602001908080601f0160208091040260200160405190810160405280939291908181526020018383808284378201915050505050509190803573ffffffffffffffffffffffffffffffffffffffff1690602001909190505061104d565b005b341561056857600080fd5b61057e60048080359060200190919050506112b6565b005b341561058b57600080fd5b6105a1600480803590602001909190505061133d565b604051808060200180602001838103835285818151815260200191508051906020019080838360005b838110156105e55780820151818401526020810190506105ca565b50505050905090810190601f1680156106125780820380516001836020036101000a031916815260200191505b50838103825284818151815260200191508051906020019080838360005b8381101561064b578082015181840152602081019050610630565b50505050905090810190601f1680156106785780820380516001836020036101000a031916815260200191505b5094505050505060405180910390f35b341561069357600080fd5b61069b6114a0565b6040518082815260200191505060405180910390f35b34156106bc57600080fd5b6106c46114a6565b604051808060200180602001838103835285818151815260200191508051906020019080838360005b838110156107085780820151818401526020810190506106ed565b50505050905090810190601f1680156107355780820380516001836020036101000a031916815260200191505b50838103825284818151815260200191508051906020019080838360005b8381101561076e578082015181840152602081019050610753565b50505050905090810190601f16801561079b5780820380516001836020036101000a031916815260200191505b5094505050505060405180910390f35b34156107b657600080fd5b6107cc60048080359060200190919050506115e8565b005b34156107d957600080fd5b610805600480803573ffffffffffffffffffffffffffffffffffffffff1690602001909190505061167e565b604051808215151515815260200191505060405180910390f35b341561082a57600080fd5b61083261169e565b6040518082815260200191505060405180910390f35b341561085357600080fd5b61085b6116a4565b6040518082815260200191505060405180910390f35b341561087c57600080fd5b6108a8600480803573ffffffffffffffffffffffffffffffffffffffff169060200190919050506116aa565b6040518082815260200191505060405180910390f35b34156108c957600080fd5b6108d16116c2565b604051808215151515815260200191505060405180910390f35b34156108f657600080fd5b610922600480803573ffffffffffffffffffffffffffffffffffffffff169060200190919050506116d5565b005b341561092f57600080fd5b61095b600480803573ffffffffffffffffffffffffffffffffffffffff1690602001909190505061182a565b005b341561096857600080fd5b6109706119a3565b6040518080602001828103825283818151815260200191508051906020019080838360005b838110156109b0578082015181840152602081019050610995565b50505050905090810190601f1680156109dd5780820380516001836020036101000a031916815260200191505b509250505060405180910390f35b600a5481565b6000809054906101000a900473ffffffffffffffffffffffffffffffffffffffff1673ffffffffffffffffffffffffffffffffffffffff163373ffffffffffffffffffffffffffffffffffffffff16141515610a4c57600080fd5b60001515600f60019054906101000a900460ff161515141515610a6e57600080fd5b80600e9080519060200190610a84929190611b32565b5050565b600c5481565b600f60009054906101000a900460ff1681565b600e8054600181600116156101000203166002900480601f016020809104026020016040519081016040528092919081815260200182805460018160011615610100020316600290048015610b375780601f10610b0c57610100808354040283529160200191610b37565b820191906000526020600020905b815481529060010190602001808311610b1a57829003601f168201915b505050505081565b610b498282611a41565b73ffffffffffffffffffffffffffffffffffffffff163373ffffffffffffffffffffffffffffffffffffffff16148015610be5575060405180807f19457468657265756d205369676e6564204d6573736167653a0a37492041475281526020017f454500000000000000000000000000000000000000000000000000000000000081525060220190506040518091039020600019168260001916145b1515610bf057600080fd5b6001600760003373ffffffffffffffffffffffffffffffffffffffff1673ffffffffffffffffffffffffffffffffffffffff16815260200190815260200160002060006101000a81548160ff0219169083151502179055506001600f60016101000a81548160ff0219169083151502179055503373ffffffffffffffffffffffffffffffffffffffff167fae847a577f01cb598e7c4597673c153e2ad4318ef42f30cdf5e78afc17abe21660405160405180910390a25050565b6000809054906101000a900473ffffffffffffffffffffffffffffffffffffffff1673ffffffffffffffffffffffffffffffffffffffff163373ffffffffffffffffffffffffffffffffffffffff16141515610d0557600080fd5b60001515600f60019054906101000a900460ff161515141515610d2757600080fd5b80600b8190555050565b565b60095481565b6000809054906101000a900473ffffffffffffffffffffffffffffffffffffffff1673ffffffffffffffffffffffffffffffffffffffff163373ffffffffffffffffffffffffffffffffffffffff16141515610d9457600080fd5b60001515600f60019054906101000a900460ff161515141515610db657600080fd5b80600a8190555050565b60008060009054906101000a900473ffffffffffffffffffffffffffffffffffffffff1673ffffffffffffffffffffffffffffffffffffffff163373ffffffffffffffffffffffffffffffffffffffff16141515610e1d57600080fd5b600260009054906101000a900473ffffffffffffffffffffffffffffffffffffffff1690508073ffffffffffffffffffffffffffffffffffffffff1663fc28ede0306000809054906101000a900473ffffffffffffffffffffffffffffffffffffffff166040518363ffffffff167c0100000000000000000000000000000000000000000000000000000000028152600401808373ffffffffffffffffffffffffffffffffffffffff1673ffffffffffffffffffffffffffffffffffffffff1681526020018273ffffffffffffffffffffffffffffffffffffffff1673ffffffffffffffffffffffffffffffffffffffff16815260200192505050600060405180830381600087803b1515610f3157600080fd5b5af11515610f3e57600080fd5b5050506000809054906101000a900473ffffffffffffffffffffffffffffffffffffffff1673ffffffffffffffffffffffffffffffffffffffff16ff5b6000809054906101000a900473ffffffffffffffffffffffffffffffffffffffff1673ffffffffffffffffffffffffffffffffffffffff163373ffffffffffffffffffffffffffffffffffffffff16141515610fd657600080fd5b60001515600f60019054906101000a900460ff161515141515610ff857600080fd5b80600c8190555050565b6000809054906101000a900473ffffffffffffffffffffffffffffffffffffffff1681565b600260009054906101000a900473ffffffffffffffffffffffffffffffffffffffff1681565b60008060009054906101000a900473ffffffffffffffffffffffffffffffffffffffff1673ffffffffffffffffffffffffffffffffffffffff163373ffffffffffffffffffffffffffffffffffffffff161415156110aa57600080fd5b60001515600f60019054906101000a900460ff1615151415156110cc57600080fd5b6008546009541015156110de57600080fd5b600580548060010182816110f29190611bb2565b9160005260206000209060020201600060408051908101604052808881526020018781525090919091506000820151816000019080519060200190611138929190611be4565b506020820151816001019080519060200190611155929190611be4565b505050506009600081548092919060010191905055600660008473ffffffffffffffffffffffffffffffffffffffff1673ffffffffffffffffffffffffffffffffffffffff16815260200190815260200160002081905550600260009054906101000a900473ffffffffffffffffffffffffffffffffffffffff1690508073ffffffffffffffffffffffffffffffffffffffff1663f7faf1a730846040518363ffffffff167c0100000000000000000000000000000000000000000000000000000000028152600401808373ffffffffffffffffffffffffffffffffffffffff1673ffffffffffffffffffffffffffffffffffffffff1681526020018273ffffffffffffffffffffffffffffffffffffffff1673ffffffffffffffffffffffffffffffffffffffff16815260200192505050600060405180830381600087803b15156112a057600080fd5b5af115156112ad57600080fd5b50505050505050565b6000809054906101000a900473ffffffffffffffffffffffffffffffffffffffff1673ffffffffffffffffffffffffffffffffffffffff163373ffffffffffffffffffffffffffffffffffffffff1614151561131157600080fd5b60001515600f60019054906101000a900460ff16151514151561133357600080fd5b80600d8190555050565b60058181548110151561134c57fe5b9060005260206000209060020201600091509050806000018054600181600116156101000203166002900480601f0160208091040260200160405190810160405280929190818152602001828054600181600116156101000203166002900480156113f85780601f106113cd576101008083540402835291602001916113f8565b820191906000526020600020905b8154815290600101906020018083116113db57829003601f168201915b505050505090806001018054600181600116156101000203166002900480601f0160208091040260200160405190810160405280929190818152602001828054600181600116156101000203166002900480156114965780601f1061146b57610100808354040283529160200191611496565b820191906000526020600020905b81548152906001019060200180831161147957829003601f168201915b5050505050905082565b600b5481565b6003806000018054600181600116156101000203166002900480601f0160208091040260200160405190810160405280929190818152602001828054600181600116156101000203166002900480156115405780601f1061151557610100808354040283529160200191611540565b820191906000526020600020905b81548152906001019060200180831161152357829003601f168201915b505050505090806001018054600181600116156101000203166002900480601f0160208091040260200160405190810160405280929190818152602001828054600181600116156101000203166002900480156115de5780601f106115b3576101008083540402835291602001916115de565b820191906000526020600020905b8154815290600101906020018083116115c157829003601f168201915b5050505050905082565b6000809054906101000a900473ffffffffffffffffffffffffffffffffffffffff1673ffffffffffffffffffffffffffffffffffffffff163373ffffffffffffffffffffffffffffffffffffffff1614151561164357600080fd5b60001515600f60019054906101000a900460ff16151514151561166557600080fd5b60008111151561167457600080fd5b8060088190555050565b60076020528060005260406000206000915054906101000a900460ff1681565b600d5481565b60085481565b60066020528060005260406000206000915090505481565b600f60019054906101000a900460ff1681565b6000809054906101000a900473ffffffffffffffffffffffffffffffffffffffff1673ffffffffffffffffffffffffffffffffffffffff163373ffffffffffffffffffffffffffffffffffffffff1614151561173057600080fd5b600073ffffffffffffffffffffffffffffffffffffffff168173ffffffffffffffffffffffffffffffffffffffff161415151561176c57600080fd5b8073ffffffffffffffffffffffffffffffffffffffff166000809054906101000a900473ffffffffffffffffffffffffffffffffffffffff1673ffffffffffffffffffffffffffffffffffffffff167f8be0079c531659141344cd1fd0a4f28419497f9722a3daafe3b4186f6b6457e060405160405180910390a3806000806101000a81548173ffffffffffffffffffffffffffffffffffffffff021916908373ffffffffffffffffffffffffffffffffffffffff16021790555050565b60008060009054906101000a900473ffffffffffffffffffffffffffffffffffffffff1673ffffffffffffffffffffffffffffffffffffffff163373ffffffffffffffffffffffffffffffffffffffff1614151561188757600080fd5b600260009054906101000a900473ffffffffffffffffffffffffffffffffffffffff1690508073ffffffffffffffffffffffffffffffffffffffff1663fc28ede030846040518363ffffffff167c0100000000000000000000000000000000000000000000000000000000028152600401808373ffffffffffffffffffffffffffffffffffffffff1673ffffffffffffffffffffffffffffffffffffffff1681526020018273ffffffffffffffffffffffffffffffffffffffff1673ffffffffffffffffffffffffffffffffffffffff16815260200192505050600060405180830381600087803b151561197a57600080fd5b5af1151561198757600080fd5b5050508173ffffffffffffffffffffffffffffffffffffffff16ff5b60018054600181600116156101000203166002900480601f016020809104026020016040519081016040528092919081815260200182805460018160011615610100020316600290048015611a395780601f10611a0e57610100808354040283529160200191611a39565b820191906000526020600020905b815481529060010190602001808311611a1c57829003601f168201915b505050505081565b60008060008060418551141515611a5b5760009350611b29565b6020850151925060408501519150606085015160001a9050601b8160ff161015611a8657601b810190505b601b8160ff1614158015611a9e5750601c8160ff1614155b15611aac5760009350611b29565b600186828585604051600081526020016040526040518085600019166000191681526020018460ff1660ff1681526020018360001916600019168152602001826000191660001916815260200194505050505060206040516020810390808403906000865af11515611b1d57600080fd5b50506020604051035193505b50505092915050565b828054600181600116156101000203166002900490600052602060002090601f016020900481019282601f10611b7357805160ff1916838001178555611ba1565b82800160010185558215611ba1579182015b82811115611ba0578251825591602001919060010190611b85565b5b509050611bae9190611c64565b5090565b815481835581811511611bdf57600202816002028360005260206000209182019101611bde9190611c89565b5b505050565b828054600181600116156101000203166002900490600052602060002090601f016020900481019282601f10611c2557805160ff1916838001178555611c53565b82800160010185558215611c53579182015b82811115611c52578251825591602001919060010190611c37565b5b509050611c609190611c64565b5090565b611c8691905b80821115611c82576000816000905550600101611c6a565b5090565b90565b611cc591905b80821115611cc15760008082016000611ca89190611cc8565b600182016000611cb89190611cc8565b50600201611c8f565b5090565b90565b50805460018160011615610100020316600290046000825580601f10611cee5750611d0d565b601f016020900490600052602060002090810190611d0c9190611c64565b5b505600a165627a7a723058201ef42d3a11bafc723996e06d5256c670edda01f6469804fc356f3714677c5b420029a165627a7a72305820160b6302a3041ef5e65c8af13d3b8e12b80e874bd6d38aa00dc505c02cfd5e7d0029",
  "source": "pragma solidity ^0.4.21;\n\nimport \"zeppelin-solidity/contracts/ownership/Ownable.sol\";\nimport \"./smartlease.sol\";\n\ncontract SmartLeaseFactory is Ownable {\n\n    event NewLease(address contract_address, address indexed landlord);\n    event NewTenant(address contract_address, address indexed tenant);\n\tevent DestroyLease(address indexed contract_address, address _recipient);\n\n    string public test = \"Connected\";\n\n\tmodifier landlordOnly() {\n\t\tSmartLease existingLease = SmartLease(msg.sender);\n\t\trequire(tx.origin == existingLease.owner());\n\t\t_;\n\t}\n\n\tmodifier smartleaseOnly(address _lease_address) {\n\t\trequire(msg.sender == _lease_address);\n\t\t_;\n\t}\n\n\tfunction createContract(\n\t\tstring _landlordFirst, \n\t\tstring _landlordLast,\n\t\tstring _googlePlaceId,\n\t\tuint _maxTenants,\n\t\tuint _startDate, \n\t\tuint _endDate,\n\t\tuint _securityDeposit, \n\t\tuint _rent\n\t\t) external returns (SmartLease leaseAddress)\n\t{\n\t\tSmartLease newContract = new SmartLease(_landlordFirst, _landlordLast,\n\t\t\t\t\t\t\t\t\t\t\t\t_googlePlaceId,\n\t\t\t\t\t\t\t\t\t\t\t\t_maxTenants,\n\t\t\t\t\t\t\t\t\t\t\t\t_startDate, _endDate,\n\t\t\t\t\t\t\t\t\t\t\t\t_securityDeposit, _rent);\n\t\tnewContract.transferOwnership(tx.origin);\n        emit NewLease(newContract, tx.origin);\n        return newContract;\n    }\n\n\tfunction emitNewTenant(address _lease_address, address _tenant_address) public smartleaseOnly(_lease_address) landlordOnly {\n\t\temit NewTenant(_lease_address, _tenant_address);\n\t}\n\n\tfunction emitDestroyLease(address _lease_address, address _recipient) public smartleaseOnly(_lease_address) landlordOnly {\n\t\temit DestroyLease(_lease_address, _recipient);\n\t}\n}",
  "sourcePath": "/Users/ABMBP/Holberton/Blockchain/SmartLeaseMain/contracts/smartleasefactory.sol",
  "compiler": {
    "name": "solc",
    "version": "0.4.21+commit.dfe3193c.Emscripten.clang"
  },
  "schemaVersion": "2.0.0",
  "updatedAt": "2018-04-20T09:23:15.383Z"
}