{
  "contractName": "SmartLeaseFactory",
  "abi": [
    {
      "constant": true,
      "inputs": [],
      "name": "owner",
      "outputs": [
        {
          "name": "",
          "type": "address"
        }
      ],
      "payable": false,
      "stateMutability": "view",
      "type": "function"
    },
    {
      "constant": false,
      "inputs": [
        {
          "name": "newOwner",
          "type": "address"
        }
      ],
      "name": "transferOwnership",
      "outputs": [],
      "payable": false,
      "stateMutability": "nonpayable",
      "type": "function"
    },
    {
      "constant": true,
      "inputs": [],
      "name": "test",
      "outputs": [
        {
          "name": "",
          "type": "string"
        }
      ],
      "payable": false,
      "stateMutability": "view",
      "type": "function"
    },
    {
      "anonymous": false,
      "inputs": [
        {
          "indexed": false,
          "name": "contract_address",
          "type": "address"
        },
        {
          "indexed": true,
          "name": "landlord",
          "type": "address"
        }
      ],
      "name": "NewLease",
      "type": "event"
    },
    {
      "anonymous": false,
      "inputs": [
        {
          "indexed": false,
          "name": "contract_address",
          "type": "address"
        },
        {
          "indexed": true,
          "name": "tenant",
          "type": "address"
        }
      ],
      "name": "NewTenant",
      "type": "event"
    },
    {
      "anonymous": false,
      "inputs": [
        {
          "indexed": true,
          "name": "previousOwner",
          "type": "address"
        },
        {
          "indexed": true,
          "name": "newOwner",
          "type": "address"
        }
      ],
      "name": "OwnershipTransferred",
      "type": "event"
    },
    {
      "constant": false,
      "inputs": [
        {
          "name": "_first",
          "type": "string"
        },
        {
          "name": "_last",
          "type": "string"
        }
      ],
      "name": "createContract",
      "outputs": [
        {
          "name": "leaseAddress",
          "type": "address"
        }
      ],
      "payable": false,
      "stateMutability": "nonpayable",
      "type": "function"
    },
    {
      "constant": false,
      "inputs": [
        {
          "name": "_contract_address",
          "type": "address"
        },
        {
          "name": "_tenant",
          "type": "address"
        }
      ],
      "name": "emitNewTenant",
      "outputs": [],
      "payable": false,
      "stateMutability": "nonpayable",
      "type": "function"
    }
  ],
  "bytecode": "0x60606040526040805190810160405280600981526020017f436f6e6e656374656400000000000000000000000000000000000000000000008152506001908051906020019061004f929190610095565b50336000806101000a81548173ffffffffffffffffffffffffffffffffffffffff021916908373ffffffffffffffffffffffffffffffffffffffff16021790555061013a565b828054600181600116156101000203166002900490600052602060002090601f016020900481019282601f106100d657805160ff1916838001178555610104565b82800160010185558215610104579182015b828111156101035782518255916020019190600101906100e8565b5b5090506101119190610115565b5090565b61013791905b8082111561013357600081600090555060010161011b565b5090565b90565b6122fa806101496000396000f30060606040526004361061006d576000357c0100000000000000000000000000000000000000000000000000000000900463ffffffff168063631a4231146100725780638da5cb5b146100f4578063f2fde38b14610149578063f7faf1a714610182578063f8a8fd6d146101da575b600080fd5b341561007d57600080fd5b6100b2600480803590602001908201803590602001919091929080359060200190820180359060200191909192905050610268565b604051808273ffffffffffffffffffffffffffffffffffffffff1673ffffffffffffffffffffffffffffffffffffffff16815260200191505060405180910390f35b34156100ff57600080fd5b610107610402565b604051808273ffffffffffffffffffffffffffffffffffffffff1673ffffffffffffffffffffffffffffffffffffffff16815260200191505060405180910390f35b341561015457600080fd5b610180600480803573ffffffffffffffffffffffffffffffffffffffff16906020019091905050610427565b005b341561018d57600080fd5b6101d8600480803573ffffffffffffffffffffffffffffffffffffffff1690602001909190803573ffffffffffffffffffffffffffffffffffffffff1690602001909190505061057c565b005b34156101e557600080fd5b6101ed6105fa565b6040518080602001828103825283818151815260200191508051906020019080838360005b8381101561022d578082015181840152602081019050610212565b50505050905090810190601f16801561025a5780820380516001836020036101000a031916815260200191505b509250505060405180910390f35b60008085858585610277610698565b80806020018060200183810383528787828181526020019250808284378201915050838103825285858281815260200192508082843782019150509650505050505050604051809103906000f08015156102d057600080fd5b90508073ffffffffffffffffffffffffffffffffffffffff1663f2fde38b326040518263ffffffff167c0100000000000000000000000000000000000000000000000000000000028152600401808273ffffffffffffffffffffffffffffffffffffffff1673ffffffffffffffffffffffffffffffffffffffff168152602001915050600060405180830381600087803b151561036c57600080fd5b5af1151561037957600080fd5b5050503273ffffffffffffffffffffffffffffffffffffffff167f53f2902f2b607b4aac0469383128845ef3d34d7adf4bcc5efa53176d4f5bde1f82604051808273ffffffffffffffffffffffffffffffffffffffff1673ffffffffffffffffffffffffffffffffffffffff16815260200191505060405180910390a280915050949350505050565b6000809054906101000a900473ffffffffffffffffffffffffffffffffffffffff1681565b6000809054906101000a900473ffffffffffffffffffffffffffffffffffffffff1673ffffffffffffffffffffffffffffffffffffffff163373ffffffffffffffffffffffffffffffffffffffff1614151561048257600080fd5b600073ffffffffffffffffffffffffffffffffffffffff168173ffffffffffffffffffffffffffffffffffffffff16141515156104be57600080fd5b8073ffffffffffffffffffffffffffffffffffffffff166000809054906101000a900473ffffffffffffffffffffffffffffffffffffffff1673ffffffffffffffffffffffffffffffffffffffff167f8be0079c531659141344cd1fd0a4f28419497f9722a3daafe3b4186f6b6457e060405160405180910390a3806000806101000a81548173ffffffffffffffffffffffffffffffffffffffff021916908373ffffffffffffffffffffffffffffffffffffffff16021790555050565b8073ffffffffffffffffffffffffffffffffffffffff167f7b9bd42959adfcedbb2ab6c7963f324df889c3c783c70388b9bfbce380f7eb1083604051808273ffffffffffffffffffffffffffffffffffffffff1673ffffffffffffffffffffffffffffffffffffffff16815260200191505060405180910390a25050565b60018054600181600116156101000203166002900480601f0160208091040260200160405190810160405280929190818152602001828054600181600116156101000203166002900480156106905780601f1061066557610100808354040283529160200191610690565b820191906000526020600020905b81548152906001019060200180831161067357829003601f168201915b505050505081565b604051611c26806106a983390190560060606040526000600160006101000a81548173ffffffffffffffffffffffffffffffffffffffff021916908373ffffffffffffffffffffffffffffffffffffffff160217905550600160009054906101000a900473ffffffffffffffffffffffffffffffffffffffff16600260006101000a81548173ffffffffffffffffffffffffffffffffffffffff021916908373ffffffffffffffffffffffffffffffffffffffff16021790555060016009556000600a556000600b556000600c556000600d556020604051908101604052806000815250600e9080519060200190620000ea929190620001df565b503415620000f757600080fd5b60405162001c2638038062001c2683398101604052808051820191906020018051820191905050336000806101000a81548173ffffffffffffffffffffffffffffffffffffffff021916908373ffffffffffffffffffffffffffffffffffffffff160217905550816004600001908051906020019062000179929190620001df565b50806004600101908051906020019062000195929190620001df565b5033600360006101000a81548173ffffffffffffffffffffffffffffffffffffffff021916908373ffffffffffffffffffffffffffffffffffffffff16021790555050506200028e565b828054600181600116156101000203166002900490600052602060002090601f016020900481019282601f106200022257805160ff191683800117855562000253565b8280016001018555821562000253579182015b828111156200025257825182559160200191906001019062000235565b5b50905062000262919062000266565b5090565b6200028b91905b80821115620002875760008160009055506001016200026d565b5090565b90565b611988806200029e6000396000f300606060405260043610610128576000357c0100000000000000000000000000000000000000000000000000000000900463ffffffff1680630b97bc861461012d578063220e5ab31461015657806334c92a2c1461017f57806375136faa146101e95780637ec37f2c1461021257806386aefcea146102515780638da5cb5b14610274578063963671be146102c95780639c936c341461031e578063bb5d40eb146103dd578063bd2ba85d1461040a578063bd99e81c14610512578063c24a0f8b1461056f578063c36ff3dd14610598578063c601e54a146105d7578063dc1997ea14610665578063dc328aa81461075f578063e1746af914610782578063e4f0de1e146107d3578063e66355a5146107fc578063e66a6b2214610849578063f2fde38b14610876575b600080fd5b341561013857600080fd5b6101406108af565b6040518082815260200191505060405180910390f35b341561016157600080fd5b6101696108b5565b6040518082815260200191505060405180910390f35b341561018a57600080fd5b6101e760048080356000191690602001909190803590602001908201803590602001908080601f016020809104026020016040519081016040528093929190818152602001838380828437820191505050505050919050506108bb565b005b34156101f457600080fd5b6101fc6109e3565b6040518082815260200191505060405180910390f35b341561021d57600080fd5b61024f600480803561ffff1690602001909190803560ff1690602001909190803560ff169060200190919050506109e9565b005b341561025c57600080fd5b6102726004808035906020019091905050610b86565b005b341561027f57600080fd5b610287610c0d565b604051808273ffffffffffffffffffffffffffffffffffffffff1673ffffffffffffffffffffffffffffffffffffffff16815260200191505060405180910390f35b34156102d457600080fd5b6102dc610c32565b604051808273ffffffffffffffffffffffffffffffffffffffff1673ffffffffffffffffffffffffffffffffffffffff16815260200191505060405180910390f35b341561032957600080fd5b6103db600480803590602001908201803590602001908080601f0160208091040260200160405190810160405280939291908181526020018383808284378201915050505050509190803590602001908201803590602001908080601f0160208091040260200160405190810160405280939291908181526020018383808284378201915050505050509190803573ffffffffffffffffffffffffffffffffffffffff16906020019091905050610c58565b005b34156103e857600080fd5b6103f0610ec1565b604051808215151515815260200191505060405180910390f35b341561041557600080fd5b61042b6004808035906020019091905050610ed4565b604051808060200180602001838103835285818151815260200191508051906020019080838360005b8381101561046f578082015181840152602081019050610454565b50505050905090810190601f16801561049c5780820380516001836020036101000a031916815260200191505b50838103825284818151815260200191508051906020019080838360005b838110156104d55780820151818401526020810190506104ba565b50505050905090810190601f1680156105025780820380516001836020036101000a031916815260200191505b5094505050505060405180910390f35b341561051d57600080fd5b61056d600480803590602001908201803590602001908080601f01602080910402602001604051908101604052809392919081815260200183838082843782019150505050505091905050611037565b005b341561057a57600080fd5b6105826110ce565b6040518082815260200191505060405180910390f35b34156105a357600080fd5b6105d5600480803561ffff1690602001909190803560ff1690602001909190803560ff169060200190919050506110d4565b005b34156105e257600080fd5b6105ea611271565b6040518080602001828103825283818151815260200191508051906020019080838360005b8381101561062a57808201518184015260208101905061060f565b50505050905090810190601f1680156106575780820380516001836020036101000a031916815260200191505b509250505060405180910390f35b341561067057600080fd5b61067861130f565b604051808060200180602001838103835285818151815260200191508051906020019080838360005b838110156106bc5780820151818401526020810190506106a1565b50505050905090810190601f1680156106e95780820380516001836020036101000a031916815260200191505b50838103825284818151815260200191508051906020019080838360005b83811015610722578082015181840152602081019050610707565b50505050905090810190601f16801561074f5780820380516001836020036101000a031916815260200191505b5094505050505060405180910390f35b341561076a57600080fd5b6107806004808035906020019091905050611451565b005b341561078d57600080fd5b6107b9600480803573ffffffffffffffffffffffffffffffffffffffff169060200190919050506114e7565b604051808215151515815260200191505060405180910390f35b34156107de57600080fd5b6107e6611507565b6040518082815260200191505060405180910390f35b341561080757600080fd5b610833600480803573ffffffffffffffffffffffffffffffffffffffff1690602001909190505061150d565b6040518082815260200191505060405180910390f35b341561085457600080fd5b61085c611525565b604051808215151515815260200191505060405180910390f35b341561088157600080fd5b6108ad600480803573ffffffffffffffffffffffffffffffffffffffff16906020019091905050611538565b005b600b5481565b600d5481565b6108c5828261168d565b73ffffffffffffffffffffffffffffffffffffffff163373ffffffffffffffffffffffffffffffffffffffff16148015610961575060405180807f19457468657265756d205369676e6564204d6573736167653a0a37492041475281526020017f454500000000000000000000000000000000000000000000000000000000000081525060220190506040518091039020600019168260001916145b151561096c57600080fd5b6001600860003373ffffffffffffffffffffffffffffffffffffffff1673ffffffffffffffffffffffffffffffffffffffff16815260200190815260200160002060006101000a81548160ff0219169083151502179055506001600f60016101000a81548160ff0219169083151502179055505050565b600a5481565b6000809054906101000a900473ffffffffffffffffffffffffffffffffffffffff1673ffffffffffffffffffffffffffffffffffffffff163373ffffffffffffffffffffffffffffffffffffffff16141515610a4457600080fd5b60001515600f60019054906101000a900460ff161515141515610a6657600080fd5b600160009054906101000a900473ffffffffffffffffffffffffffffffffffffffff1660008173ffffffffffffffffffffffffffffffffffffffff1614151515610aaf57600080fd5b600260009054906101000a900473ffffffffffffffffffffffffffffffffffffffff1673ffffffffffffffffffffffffffffffffffffffff16638c8d98a08585856040518463ffffffff167c0100000000000000000000000000000000000000000000000000000000028152600401808461ffff1661ffff1681526020018360ff1660ff1681526020018260ff1660ff1681526020019350505050602060405180830381600087803b1515610b6357600080fd5b5af11515610b7057600080fd5b50505060405180519050600c8190555050505050565b6000809054906101000a900473ffffffffffffffffffffffffffffffffffffffff1673ffffffffffffffffffffffffffffffffffffffff163373ffffffffffffffffffffffffffffffffffffffff16141515610be157600080fd5b60001515600f60019054906101000a900460ff161515141515610c0357600080fd5b80600d8190555050565b6000809054906101000a900473ffffffffffffffffffffffffffffffffffffffff1681565b600360009054906101000a900473ffffffffffffffffffffffffffffffffffffffff1681565b60008060009054906101000a900473ffffffffffffffffffffffffffffffffffffffff1673ffffffffffffffffffffffffffffffffffffffff163373ffffffffffffffffffffffffffffffffffffffff16141515610cb557600080fd5b60001515600f60019054906101000a900460ff161515141515610cd757600080fd5b600954600a54101515610ce957600080fd5b60068054806001018281610cfd919061177e565b9160005260206000209060020201600060408051908101604052808881526020018781525090919091506000820151816000019080519060200190610d439291906117b0565b506020820151816001019080519060200190610d609291906117b0565b50505050600a600081548092919060010191905055600760008473ffffffffffffffffffffffffffffffffffffffff1673ffffffffffffffffffffffffffffffffffffffff16815260200190815260200160002081905550600360009054906101000a900473ffffffffffffffffffffffffffffffffffffffff1690508073ffffffffffffffffffffffffffffffffffffffff1663f7faf1a730846040518363ffffffff167c0100000000000000000000000000000000000000000000000000000000028152600401808373ffffffffffffffffffffffffffffffffffffffff1673ffffffffffffffffffffffffffffffffffffffff1681526020018273ffffffffffffffffffffffffffffffffffffffff1673ffffffffffffffffffffffffffffffffffffffff16815260200192505050600060405180830381600087803b1515610eab57600080fd5b5af11515610eb857600080fd5b50505050505050565b600f60009054906101000a900460ff1681565b600681815481101515610ee357fe5b9060005260206000209060020201600091509050806000018054600181600116156101000203166002900480601f016020809104026020016040519081016040528092919081815260200182805460018160011615610100020316600290048015610f8f5780601f10610f6457610100808354040283529160200191610f8f565b820191906000526020600020905b815481529060010190602001808311610f7257829003601f168201915b505050505090806001018054600181600116156101000203166002900480601f01602080910402602001604051908101604052809291908181526020018280546001816001161561010002031660029004801561102d5780601f106110025761010080835404028352916020019161102d565b820191906000526020600020905b81548152906001019060200180831161101057829003601f168201915b5050505050905082565b6000809054906101000a900473ffffffffffffffffffffffffffffffffffffffff1673ffffffffffffffffffffffffffffffffffffffff163373ffffffffffffffffffffffffffffffffffffffff1614151561109257600080fd5b60001515600f60019054906101000a900460ff1615151415156110b457600080fd5b80600e90805190602001906110ca929190611830565b5050565b600c5481565b6000809054906101000a900473ffffffffffffffffffffffffffffffffffffffff1673ffffffffffffffffffffffffffffffffffffffff163373ffffffffffffffffffffffffffffffffffffffff1614151561112f57600080fd5b60001515600f60019054906101000a900460ff16151514151561115157600080fd5b600160009054906101000a900473ffffffffffffffffffffffffffffffffffffffff1660008173ffffffffffffffffffffffffffffffffffffffff161415151561119a57600080fd5b600260009054906101000a900473ffffffffffffffffffffffffffffffffffffffff1673ffffffffffffffffffffffffffffffffffffffff16638c8d98a08585856040518463ffffffff167c0100000000000000000000000000000000000000000000000000000000028152600401808461ffff1661ffff1681526020018360ff1660ff1681526020018260ff1660ff1681526020019350505050602060405180830381600087803b151561124e57600080fd5b5af1151561125b57600080fd5b50505060405180519050600b8190555050505050565b600e8054600181600116156101000203166002900480601f0160208091040260200160405190810160405280929190818152602001828054600181600116156101000203166002900480156113075780601f106112dc57610100808354040283529160200191611307565b820191906000526020600020905b8154815290600101906020018083116112ea57829003601f168201915b505050505081565b6004806000018054600181600116156101000203166002900480601f0160208091040260200160405190810160405280929190818152602001828054600181600116156101000203166002900480156113a95780601f1061137e576101008083540402835291602001916113a9565b820191906000526020600020905b81548152906001019060200180831161138c57829003601f168201915b505050505090806001018054600181600116156101000203166002900480601f0160208091040260200160405190810160405280929190818152602001828054600181600116156101000203166002900480156114475780601f1061141c57610100808354040283529160200191611447565b820191906000526020600020905b81548152906001019060200180831161142a57829003601f168201915b5050505050905082565b6000809054906101000a900473ffffffffffffffffffffffffffffffffffffffff1673ffffffffffffffffffffffffffffffffffffffff163373ffffffffffffffffffffffffffffffffffffffff161415156114ac57600080fd5b60001515600f60019054906101000a900460ff1615151415156114ce57600080fd5b6000811115156114dd57600080fd5b8060098190555050565b60086020528060005260406000206000915054906101000a900460ff1681565b60095481565b60076020528060005260406000206000915090505481565b600f60019054906101000a900460ff1681565b6000809054906101000a900473ffffffffffffffffffffffffffffffffffffffff1673ffffffffffffffffffffffffffffffffffffffff163373ffffffffffffffffffffffffffffffffffffffff1614151561159357600080fd5b600073ffffffffffffffffffffffffffffffffffffffff168173ffffffffffffffffffffffffffffffffffffffff16141515156115cf57600080fd5b8073ffffffffffffffffffffffffffffffffffffffff166000809054906101000a900473ffffffffffffffffffffffffffffffffffffffff1673ffffffffffffffffffffffffffffffffffffffff167f8be0079c531659141344cd1fd0a4f28419497f9722a3daafe3b4186f6b6457e060405160405180910390a3806000806101000a81548173ffffffffffffffffffffffffffffffffffffffff021916908373ffffffffffffffffffffffffffffffffffffffff16021790555050565b600080600080604185511415156116a75760009350611775565b6020850151925060408501519150606085015160001a9050601b8160ff1610156116d257601b810190505b601b8160ff16141580156116ea5750601c8160ff1614155b156116f85760009350611775565b600186828585604051600081526020016040526040518085600019166000191681526020018460ff1660ff1681526020018360001916600019168152602001826000191660001916815260200194505050505060206040516020810390808403906000865af1151561176957600080fd5b50506020604051035193505b50505092915050565b8154818355818115116117ab576002028160020283600052602060002091820191016117aa91906118b0565b5b505050565b828054600181600116156101000203166002900490600052602060002090601f016020900481019282601f106117f157805160ff191683800117855561181f565b8280016001018555821561181f579182015b8281111561181e578251825591602001919060010190611803565b5b50905061182c91906118ef565b5090565b828054600181600116156101000203166002900490600052602060002090601f016020900481019282601f1061187157805160ff191683800117855561189f565b8280016001018555821561189f579182015b8281111561189e578251825591602001919060010190611883565b5b5090506118ac91906118ef565b5090565b6118ec91905b808211156118e857600080820160006118cf9190611914565b6001820160006118df9190611914565b506002016118b6565b5090565b90565b61191191905b8082111561190d5760008160009055506001016118f5565b5090565b90565b50805460018160011615610100020316600290046000825580601f1061193a5750611959565b601f01602090049060005260206000209081019061195891906118ef565b5b505600a165627a7a7230582004f8c5f5f023cfb2206425359c7d5fa80bd2578b0ef5328481a32ed600a7fda30029a165627a7a723058209ef93b92db4c83ce4c55092a89a0d42ad7412f9cd50f33d9bb46487f606219670029",
  "source": "pragma solidity ^0.4.21;\n\nimport \"zeppelin-solidity/contracts/ownership/Ownable.sol\";\nimport \"./smartlease.sol\";\n\ncontract SmartLeaseFactory is Ownable {\n\n    event NewLease(address contract_address, address indexed landlord);\n    event NewTenant(address contract_address, address indexed tenant);\n\n    string public test = \"Connected\";\n\n    function createContract(string _first, string _last) external returns (SmartLease leaseAddress) {\n        SmartLease newContract = new SmartLease(_first, _last);\n        newContract.transferOwnership(tx.origin);\n        emit NewLease(newContract, tx.origin);\n        return newContract;\n    }\n\n\tfunction emitNewTenant(address _contract_address, address _tenant) public {\n\t\temit NewTenant(_contract_address, _tenant);\n\t}\n}",
  "sourcePath": "/Users/ABMBP/Holberton/Blockchain/SmartLeaseMain/contracts/smartleasefactory.sol",
  "compiler": {
    "name": "solc",
    "version": "0.4.21+commit.dfe3193c.Emscripten.clang"
  },
  "schemaVersion": "2.0.0",
  "updatedAt": "2018-04-19T01:25:38.685Z"
}